:100000000C942A000C9480090C94B3090C94E60912
:100010000C9447000C9447000C9447000C94470044
:100020000C9447000C9447000C949E070C942507F1
:100030000C9447000C9447000C9447000C94470024
:100040000C9447000C9447000C9447000C94470014
:100050000C94470011241FBECFE5D8E0DEBFCDBF12
:1000600011E0A0E6B0E0EEEDF8E302C005900D92DD
:10007000AA3CB107D9F711E0AAECB1E001C01D928A
:10008000A03EB107E1F70E947E150C946D1C0C9404
:100090000000EF92FF920F931F937B018C0120E0F1
:1000A00030E040E05FE40E94490388238CF0C801FF
:1000B000B70120E030E040E05FE40E94C1010E940F
:1000C000A9039B01AC01205030404040504806C07D
:1000D000C801B7010E94A9039B01AC01B901CA0183
:1000E0001F910F91FF90EF900895A0E0B0E0EBE733
:1000F000F0E00C949519DC012B01FA019C919230EF
:1001000008F439C1EB018881823008F433C194309E
:1001100069F4843009F02FC111969C91119789815F
:10012000981709F428C1A2EBB1E025C1843009F485
:1001300021C18230A9F4923009F01DC19A01AD01AC
:1001400088E0EA010990AE01E90109929E0181501F
:10015000C1F7E201898111969C918923818308C1AD
:10016000923009F407C112962D903C901397EB0141
:100170008A819B811496AD90BD90CD90DC901797AD
:10018000EC80FD800E811F819101281B390BB90184
:1001900037FF04C066277727621B730B6032710537
:1001A0000CF061C0121613066CF537014801062EDB
:1001B00004C096948794779467940A94D2F721E0C8
:1001C00030E040E050E004C0220F331F441F551FB1
:1001D0006A95D2F721503040404050402E213F21B7
:1001E00040235123211531054105510521F021E01E
:1001F00030E040E050E079018A01E628F72808293C
:1002000019293CC0232BD1F1260E371E350146019A
:10021000062E04C096948794779467940A94D2F734
:1002200021E030E040E050E004C0220F331F441FC3
:10023000551F6A95D2F721503040404050402A2146
:100240003B214C215D21211531054105510521F04E
:1002500021E030E040E050E059016A01A628B728CB
:10026000C828D9280BC0821593052CF01C01AA249C
:10027000BB24650103C0EE24FF24870111969C91E5
:10028000D20111968C91981709F445C0992339F041
:10029000A80197012A193B094C095D0906C0A6016E
:1002A00095012E193F09400B510B57FD08C01182D3
:1002B0003382228224833583468357831DC081E0A5
:1002C00081833382228288279927DC01821B930B4A
:1002D000A40BB50B84839583A683B7830DC0220F2F
:1002E000331F441F551F24833583468357838281E0
:1002F000938101979383828324813581468157813D
:10030000DA01C9010197A109B1098F5F9F4FAF4F72
:10031000BF4328F30BC0918333822282EA0CFB1C7B
:100320000C1D1D1DE482F5820683178383E0808304
:10033000248135814681578157FF1AC0C901AA27F8
:1003400097FDA095BA2F81709070A070B0705695EF
:10035000479537952795822B932BA42BB52B848318
:100360009583A683B7838281938101969383828349
:10037000DF0101C0D201CD01CDB7DEB7E2E10C94BF
:10038000B119A0E2B0E0E7ECF1E00C94A1196983A7
:100390007A838B839C832D833E834F835887E9E048
:1003A000EE2EF12CEC0EFD1ECE010196B7010E943F
:1003B000D2048E010F5E1F4FCE010596B8010E9438
:1003C000D2048A8991E089278A8BC701B801AE01DE
:1003D000475E5F4F0E9475000E94FD03A096E6E015
:1003E0000C94BD19A0E2B0E0E8EFF1E00C94A11983
:1003F00069837A838B839C832D833E834F835887C5
:10040000F9E0EF2EF12CEC0EFD1ECE010196B701A6
:100410000E94D2048E010F5E1F4FCE010596B801D7
:100420000E94D204C701B801AE01475E5F4F0E942F
:1004300075000E94FD03A096E6E00C94BD19A0E2B1
:10044000B0E0E5E2F2E00C94951969837A838B833E
:100450009C832D833E834F835887CE010196BE0136
:10046000675F7F4F0E94D204CE010596BE016F5E8A
:100470007F4F0E94D2049985923088F0898982301A
:10048000C8F0943019F4823051F404C0843029F457
:10049000923081F482EB91E0C6C0923049F420E0C2
:1004A0009A858A89981321E02A87CE010996BBC0D4
:1004B000823049F420E09A858A89981321E02A8BBA
:1004C000CE014196B0C02D843E844F8458886D88FB
:1004D0007E888F88988CEE24FF248701AA24BB2471
:1004E000650140E050E060E070E0E0E0F0E0C10174
:1004F00081709070892BE9F0E60CF71C081D191D1E
:100500009A01AB012A0D3B1D4C1D5D1D80E090E062
:10051000A0E0B0E0E614F7040805190520F481E036
:1005200090E0A0E0B0E0BA01A901480F591F6A1F8E
:100530007B1FAA0CBB1CCC1CDD1C97FE08C081E0F5
:1005400090E0A0E0B0E0A82AB92ACA2ADB2A3196B6
:10055000E032F10549F0660C771C881C991C569412
:10056000479437942794C3CFFA85EA892B893C892D
:100570008B859C85280F391F2E5F3F4F17C0CA01FE
:1005800081709070892B61F016950795F794E79428
:1005900080E090E0A0E0B0E8E82AF92A0A2B1B2BC3
:1005A00076956795579547952F5F3F4F77FDE7CF36
:1005B0000CC0440F551F661F771F17FD4160EE0CDE
:1005C000FF1C001F111F21503040403090E05907A0
:1005D00090E0690790E4790760F32B8F3C8FDB0193
:1005E000CA018F779070A070B07080349105A1051A
:1005F000B10561F447FD0AC0E114F10401051105DC
:1006000029F0405C5F4F6F4F7F4F40781A8EFE1786
:1006100011F081E08A8F4D8F5E8F6F8F78A383E01A
:10062000898FCE0149960E94FD03A096E2E10C94C9
:10063000B119A8E1B0E0EFE1F3E00C94A1196983EE
:100640007A838B839C832D833E834F83588789E0F5
:10065000E82EF12CEC0EFD1ECE010196B7010E9492
:10066000D2048E010F5E1F4FCE010596B8010E9485
:10067000D2048985823040F08989823028F0C70110
:10068000B8010E944A0501C08FEF6896E6E00C941D
:10069000BD19A8E1B0E0EFE4F3E00C94A11969837F
:1006A0007A838B839C832D833E834F83588789E095
:1006B000E82EF12CEC0EFD1ECE010196B7010E9432
:1006C000D2048E010F5E1F4FCE010596B8010E9425
:1006D000D2048985823040F08989823028F0C701B0
:1006E000B8010E944A0501C08FEF6896E6E00C94BD
:1006F000BD19A8E1B0E0EFE7F3E00C94A11969831C
:100700007A838B839C832D833E834F83588789E034
:10071000E82EF12CEC0EFD1ECE010196B7010E94D1
:10072000D2048E010F5E1F4FCE010596B8010E94C4
:10073000D2048985823040F08989823028F0C7014F
:10074000B8010E944A0501C081E06896E6E00C9479
:10075000BD19ACE0B0E0EFEAF3E00C94A5196983B1
:100760007A838B839C83CE010196BE016B5F7F4FA2
:100770000E94D2048D81823061F1823050F1843048
:1007800021F48E81882351F12EC02F81388537FDC9
:1007900020C06E812F3131051CF06623F9F023C093
:1007A0008EE190E0821B930B29853A854B855C8511
:1007B00004C056954795379527958A95D2F76623B5
:1007C000B1F050954095309521953F4F4F4F5F4F79
:1007D0000EC020E030E040E050E009C02FEF3FEFD6
:1007E0004FEF5FE704C020E030E040E050E8B9019F
:1007F000CA012C96E2E00C94C119DF92EF92FF92AD
:100800000F931F93FC01E480F58006811781D1804E
:100810008081823048F480E090E0A0E1B0E0E82AF6
:10082000F92A0A2B1B2BA5C0843009F49FC0823003
:1008300021F4EE24FF24870105C0E114F104010531
:10084000110519F4E0E0F0E096C0628173819FEF3A
:10085000623879070CF05BC022E83FEF261B370BAC
:100860002A3131052CF020E030E040E050E02AC091
:10087000B801A701022E04C0769567955795479554
:100880000A94D2F781E090E0A0E0B0E004C0880FC5
:10089000991FAA1FBB1F2A95D2F70197A109B10979
:1008A0008E219F21A023B1230097A105B10521F03E
:1008B00081E090E0A0E0B0E09A01AB01282B392B59
:1008C0004A2B5B2BDA01C9018F779070A070B07052
:1008D00080349105A105B10539F427FF09C0205CDA
:1008E0003F4F4F4F5F4F04C0215C3F4F4F4F5F4F13
:1008F000E0E0F0E02030A0E03A07A0E04A07A0E402
:100900005A0710F0E1E0F0E079018A0127C0603871
:10091000710564F5FB01E158FF4FD801C7018F77DE
:100920009070A070B07080349105A105B10539F4C4
:10093000E7FE0DC080E490E0A0E0B0E004C08FE3EB
:1009400090E0A0E0B0E0E80EF91E0A1F1B1F17FFA1
:1009500005C016950795F794E794319687E01695AC
:100960000795F794E7948A95D1F705C0EE24FF2404
:100970008701EFEFF0E06E2F679566276795902F60
:100980009F77D794DD24D7948E2F8695492F462BB9
:10099000582F5D29B701CA011F910F91FF90EF9069
:1009A000DF900895FC01DB01408151812281622F9B
:1009B0006F7770E0221F2227221F9381892F880FD3
:1009C000822B282F30E0991F9927991F11969C930D
:1009D000119721153105A9F54115510561057105DD
:1009E00011F482E037C082E89FEF13969C938E93B8
:1009F00012979A01AB0167E0220F331F441F551F66
:100A00006A95D1F783E08C930DC0220F331F441FEA
:100A1000551F12968D919C911397019713969C9355
:100A20008E931297203080E0380780E0480780E4FA
:100A3000580758F314962D933D934D935C93179755
:100A400008952F3F310579F4411551056105710570
:100A500019F484E08C93089564FF03C081E08C93C3
:100A600012C01C9210C02F57304013963C932E9307
:100A7000129783E08C9387E0440F551F661F771F02
:100A80008A95D1F7706414964D935D936D937C9322
:100A9000179708951F93DC01FB019C91923008F495
:100AA00047C08081823008F443C0943051F41196DD
:100AB0001C91843099F58181682F70E0611B710968
:100AC0003FC0843021F0923031F48230B9F181811D
:100AD000882389F12DC011961C9111978230F1F075
:100AE00081811817D9F412962D913C911397828128
:100AF00093818217930794F028173907BCF0149656
:100B00008D919D910D90BC91A02D248135814681C0
:100B10005781281739074A075B0718F4112341F05A
:100B20000AC082179307A407B50740F4112319F0F0
:100B300061E070E005C06FEF7FEF02C060E070E041
:100B4000CB011F910895DF93CF93CDB7DEB7A9E511
:100B5000B0E0E9E5F0E080818E7F8C93A9E5B0E01C
:100B6000E9E5F0E080818D7F8C93A8E5B0E0E8E5D1
:100B7000F0E0808181608C93A8E5B0E0E8E5F0E0EA
:100B8000808182608C93E2E5F0E01082ECE5F0E099
:100B900010828091DE018130E1F4A3E5B0E0E3E56D
:100BA000F0E080818F7B8C93A3E5B0E0E3E5F0E09B
:100BB0008081877F8C93A3E5B0E0E3E5F0E080815E
:100BC0008F7E8C93A3E5B0E0E3E5F0E080818F7D3C
:100BD0008C938091DE018230E1F4A3E5B0E0E3E59F
:100BE000F0E080818F7B8C93A3E5B0E0E3E5F0E05B
:100BF000808188608C93A3E5B0E0E3E5F0E080813C
:100C00008F7E8C93A3E5B0E0E3E5F0E080818F7DFB
:100C10008C938091DE018330C9F5A3E5B0E0E3E574
:100C2000F0E0808180648C93A3E5B0E0E3E5F0E040
:100C3000808188608C93A7E3B0E0E7E3F0E08081F7
:100C400088608C938091DF01813071F4A3E5B0E07E
:100C5000E3E5F0E080818F7E8C93A3E5B0E0E3E5EF
:100C6000F0E0808180628C938091DF01823071F4AA
:100C7000A3E5B0E0E3E5F0E0808180618C93A3E53B
:100C8000B0E0E3E5F0E0808180628C938091DD014B
:100C90008823A9F4A3E5B0E0E3E5F0E080818E7F4E
:100CA0008C93A3E5B0E0E3E5F0E080818D7F8C9349
:100CB000A3E5B0E0E3E5F0E080818B7F8C93809149
:100CC000DD018130A9F4A3E5B0E0E3E5F0E0808147
:100CD00081608C93A3E5B0E0E3E5F0E080818D7F57
:100CE0008C93A3E5B0E0E3E5F0E080818B7F8C930B
:100CF0008091DD018230A9F4A3E5B0E0E3E5F0E006
:100D000080818E7F8C93A3E5B0E0E3E5F0E0808105
:100D100082608C93A3E5B0E0E3E5F0E080818B7F17
:100D20008C938091DD018330A9F4A3E5B0E0E3E585
:100D3000F0E0808181608C93A3E5B0E0E3E5F0E032
:100D4000808182608C93A3E5B0E0E3E5F0E08081F0
:100D50008B7F8C938091DD018430A9F4A3E5B0E012
:100D6000E3E5F0E080818E7F8C93A3E5B0E0E3E5DE
:100D7000F0E080818D7F8C93A3E5B0E0E3E5F0E0C7
:100D8000808184608C938091DD018530A9F4A3E596
:100D9000B0E0E3E5F0E0808181608C93A3E5B0E012
:100DA000E3E5F0E080818D7F8C93A3E5B0E0E3E59F
:100DB000F0E0808184608C93CF91DF910895DF9380
:100DC000CF93CDB7DEB7A9E5B0E0E9E5F0E08081EB
:100DD00081608C93CF91DF910895DF93CF93CDB74E
:100DE000DEB7A9E5B0E0E9E5F0E080818E7F8C9385
:100DF000CF91DF910895DF93CF930F92CDB7DEB7F8
:100E00008983E2E5F0E0898180830F90CF91DF91C3
:100E10000895DF93CF93CDB7DEB7E2E5F0E08081B0
:100E2000CF91DF910895DF93CF9300D0CDB7DEB798
:100E30009A83898389819A819093CB018093CA0197
:100E40000F900F90CF91DF9108951F920F920FB6E0
:100E50000F9211242F933F934F935F936F937F9340
:100E60008F939F93AF93BF93EF93FF93DF93CF93B2
:100E7000CDB7DEB78091CA019091CB01009729F0E0
:100E8000E091CA01F091CB010995CF91DF91FF91DB
:100E9000EF91BF91AF919F918F917F916F915F91F2
:100EA0004F913F912F910F900FBE0F901F9018956B
:100EB000DF93CF93CDB7DEB7A9E5B0E0E9E5F0E089
:100EC000808182608C93CF91DF910895DF93CF93DF
:100ED000CDB7DEB7A9E5B0E0E9E5F0E080818D7F30
:100EE0008C93CF91DF910895DF93CF930F92CDB77D
:100EF000DEB78983ECE5F0E0898180830F90CF91A4
:100F0000DF910895DF93CF93CDB7DEB7ECE5F0E046
:100F10008081CF91DF910895DF93CF9300D0CDB73B
:100F2000DEB79A83898389819A819093CD018093DA
:100F3000CC010F900F90CF91DF9108951F920F92E7
:100F40000FB60F9211242F933F934F935F936F939C
:100F50007F938F939F93AF93BF93EF93FF93DF9311
:100F6000CF93CDB7DEB78091CC019091CD010097A2
:100F700029F0E091CC01F091CD010995CF91DF915D
:100F8000FF91EF91BF91AF919F918F917F916F9161
:100F90005F914F913F912F910F900FBE0F901F9037
:100FA0001895DF93CF93CDB7DEB7AFE5B0E0EFE5AF
:100FB000F0E0808180688C93CF91DF910895DF937A
:100FC000CF93CDB7DEB7AFE5B0E0EFE5F0E08081DD
:100FD0008F778C93CF91DF910895DF93CF93CDB727
:100FE000DEB728970FB6F894DEBF0FBECDBF89835A
:100FF0006A838981882309F05BC08A81282F30E0C9
:1010000038872F838F8198858130910521F12F8139
:101010003885223031052CF48F819885009761F056
:10102000C8C02F8138852230310521F18F81988504
:101030008330910571F1BDC0A5E5B0E0E5E5F0E0D4
:1010400080818E7F8C93A5E5B0E0E5E5F0E08081BE
:101050008D7F8C93AEC0A5E5B0E0E5E5F0E0808142
:1010600081608C93A5E5B0E0E5E5F0E080818D7FBF
:101070008C939FC0A5E5B0E0E5E5F0E080818E7F30
:101080008C93A5E5B0E0E5E5F0E0808182608C938B
:1010900090C0A5E5B0E0E5E5F0E0808181608C934B
:1010A000A5E5B0E0E5E5F0E0808182608C9381C049
:1010B0008981813009F05BC08A81282F30E03E832E
:1010C0002D838D819E818130910521F12D813E817D
:1010D000223031052CF48D819E81009761F069C02A
:1010E0002D813E812230310521F18D819E81833019
:1010F000910571F15EC0A5E5B0E0E5E5F0E0808125
:101100008B7F8C93A5E5B0E0E5E5F0E08081877FFB
:101110008C934FC0A5E5B0E0E5E5F0E08081846008
:101120008C93A5E5B0E0E5E5F0E08081877F8C93C6
:1011300040C0A5E5B0E0E5E5F0E080818B7F8C93D1
:10114000A5E5B0E0E5E5F0E0808188608C9331C0F2
:10115000A5E5B0E0E5E5F0E0808184608C93A5E54D
:10116000B0E0E5E5F0E0808188608C9322C0898161
:101170008230F9F48A81282F30E03C832B838B81E5
:101180009C818230910531F02B813C8123303105E7
:1011900049F00FC0A4E5B0E0E4E5F0E080818F7B8A
:1011A0008C9307C0A4E5B0E0E4E5F0E080818064C2
:1011B0008C9328960FB6F894DEBF0FBECDBFCF91AB
:1011C000DF910895DF93CF9300D00F92CDB7DEB7B4
:1011D00089838981282F30E03B832A838A819B8100
:1011E0008130910589F02A813B8122303105A1F0BF
:1011F0008A819B810097B9F4ABE5B0E0EBE5F0E0C4
:10120000808180648C930FC0ABE5B0E0EBE5F0E04B
:10121000808180688C9307C0ABE5B0E0EBE5F0E03F
:10122000808180628C930F900F900F90CF91DF910F
:101230000895DF93CF9300D00F92CDB7DEB78983A7
:101240008981282F30E03B832A838A819B818130EA
:10125000910589F02A813B8122303105A1F08A81F4
:101260009B810097B9F4ABE5B0E0EBE5F0E080815D
:101270008F7B8C930FC0ABE5B0E0EBE5F0E08081B5
:101280008F778C9307C0ABE5B0E0EBE5F0E08081B1
:101290008F7D8C930F900F900F90CF91DF910895D9
:1012A000DF93CF9300D00F92CDB7DEB789837B83D6
:1012B0006A838A819B810097E9F08981882339F4C8
:1012C0008A819B819093CF018093CE0113C0898145
:1012D000813039F48A819B819093D1018093D00130
:1012E00009C08981823031F48A819B819093D30136
:1012F0008093D2010F900F900F90CF91DF910895BE
:101300001F920F920FB60F9211242F933F934F937A
:101310005F936F937F938F939F93AF93BF93EF935D
:10132000FF93DF93CF93CDB7DEB78091CE0190913D
:10133000CF01009729F0E091CE01F091CF010995FE
:10134000CF91DF91FF91EF91BF91AF919F918F91DD
:101350007F916F915F914F913F912F910F900FBEB1
:101360000F901F9018951F920F920FB60F92112495
:101370002F933F934F935F936F937F938F939F939D
:10138000AF93BF93EF93FF93DF93CF93CDB7DEB7C8
:101390008091D0019091D101009729F0E091D00186
:1013A000F091D1010995CF91DF91FF91EF91BF911C
:1013B000AF919F918F917F916F915F914F913F91ED
:1013C0002F910F900FBE0F901F9018951F920F92A4
:1013D0000FB60F9211242F933F934F935F936F9308
:1013E0007F938F939F93AF93BF93EF93FF93DF937D
:1013F000CF93CDB7DEB78091D2019091D301009702
:1014000029F0E091D201F091D3010995CF91DF91BC
:10141000FF91EF91BF91AF919F918F917F916F91CC
:101420005F914F913F912F910F900FBE0F901F90A2
:101430001895DF93CF93CDB7DEB727970FB6F89403
:10144000DEBF0FBECDBF89836A834B838A8188301C
:1014500008F0EAC08B81813009F06FC08981282FA4
:1014600030E03F832E838E819F818130910549F149
:101470002E813F81223031052CF48E819F8100978F
:1014800061F0D2C02E813F812230310571F18E8111
:101490009F8183309105E9F1C7C0AAE3B0E0EAE398
:1014A000F0E08081482F8A81282F30E081E090E0B1
:1014B000022E02C0880F991F0A94E2F7842B8C93A6
:1014C000B3C0A7E3B0E0E7E3F0E08081482F8A8172
:1014D000282F30E081E090E0022E02C0880F991F93
:1014E0000A94E2F7842B8C939FC0A4E3B0E0E4E37A
:1014F000F0E08081482F8A81282F30E081E090E061
:10150000022E02C0880F991F0A94E2F7842B8C9355
:101510008BC0A1E3B0E0E1E3F0E08081482F8A8155
:10152000282F30E081E090E0022E02C0880F991F42
:101530000A94E2F7842B8C9377C08B81882309F07F
:1015400073C08981282F30E03D832C838C819D815D
:101550008130910559F12C813D81223031052CF4E7
:101560008C819D81009769F05FC02C813D81223084
:10157000310589F18C819D818330910509F440C04A
:1015800053C0AAE3B0E0EAE3F0E08081482F8A810B
:10159000282F30E081E090E0022E02C0880F991FD2
:1015A0000A94E2F7809584238C933EC0A7E3B0E0D1
:1015B000E7E3F0E08081482F8A81282F30E081E046
:1015C00090E0022E02C0880F991F0A94E2F78095DE
:1015D00084238C9329C0A4E3B0E0E4E3F0E08081AD
:1015E000482F8A81282F30E081E090E0022E02C04F
:1015F000880F991F0A94E2F7809584238C9314C076
:10160000A1E3B0E0E1E3F0E08081482F8A81282F58
:1016100030E081E090E0022E02C0880F991F0A940A
:10162000E2F7809584238C9327960FB6F894DEBF5B
:101630000FBECDBFCF91DF910895DF93CF93CDB78C
:10164000DEB727970FB6F894DEBF0FBECDBF8983F4
:101650006A834B838A81883008F0EAC08B818130AD
:1016600009F06FC08981282F30E03F832E838E815F
:101670009F818130910549F12E813F8122303105D2
:101680002CF48E819F81009761F0D2C02E813F8122
:101690002230310571F18E819F8183309105E9F10E
:1016A000C7C0ABE3B0E0EBE3F0E08081482F8A8174
:1016B000282F30E081E090E0022E02C0880F991FB1
:1016C0000A94E2F7842B8C93B3C0A8E3B0E0E8E37C
:1016D000F0E08081482F8A81282F30E081E090E07F
:1016E000022E02C0880F991F0A94E2F7842B8C9374
:1016F0009FC0A5E3B0E0E5E3F0E08081482F8A8158
:10170000282F30E081E090E0022E02C0880F991F60
:101710000A94E2F7842B8C938BC0A2E3B0E0E2E35F
:10172000F0E08081482F8A81282F30E081E090E02E
:10173000022E02C0880F991F0A94E2F7842B8C9323
:1017400077C08B81882309F073C08981282F30E00E
:101750003D832C838C819D818130910559F12C81B1
:101760003D81223031052CF48C819D81009769F0F8
:101770005FC02C813D812230310589F18C819D81B2
:101780008330910509F440C053C0ABE3B0E0EBE314
:10179000F0E08081482F8A81282F30E081E090E0BE
:1017A000022E02C0880F991F0A94E2F780958423C5
:1017B0008C933EC0A8E3B0E0E8E3F0E08081482FDE
:1017C0008A81282F30E081E090E0022E02C0880F4D
:1017D000991F0A94E2F7809584238C9329C0A5E38E
:1017E000B0E0E5E3F0E08081482F8A81282F30E0E7
:1017F00081E090E0022E02C0880F991F0A94E2F760
:10180000809584238C9314C0A2E3B0E0E2E3F0E07F
:101810008081482F8A81282F30E081E090E0022EDD
:1018200002C0880F991F0A94E2F7809584238C9355
:1018300027960FB6F894DEBF0FBECDBFCF91DF91D4
:101840000895DF93CF9300D000D00F92CDB7DEB7CD
:101850008A836B8319828B81883008F099C08A81D2
:10186000282F30E03D832C834C815D814130510530
:10187000B1F18C819D818230910534F42C813D81C0
:101880002115310571F084C04C815D8142305105D4
:1018900009F443C08C819D818330910509F45BC0BC
:1018A00077C0E9E3F0E08081482F50E08B81282F5A
:1018B00030E081E090E002C0880F991F2A95E2F79E
:1018C0009A01282339238B81882F90E0A90102C037
:1018D000559547958A95E2F7CA01898359C0E6E391
:1018E000F0E08081482F50E08B81282F30E081E0AC
:1018F00090E002C0880F991F2A95E2F79A012823E9
:1019000039238B81882F90E0A90102C05595479516
:101910008A95E2F7CA0189833BC0E3E3F0E0808166
:10192000482F50E08B81282F30E081E090E002C00A
:10193000880F991F2A95E2F79A01282339238B8172
:10194000882F90E0A90102C0559547958A95E2F746
:10195000CA0189831DC0E0E3F0E08081482F50E098
:101960008B81282F30E081E090E002C0880F991F22
:101970002A95E2F79A01282339238B81882F90E05A
:10198000A90102C0559547958A95E2F7CA01898356
:1019900089810F900F900F900F900F90CF91DF9152
:1019A0000895DF93CF9300D000D0CDB7DEB7898301
:1019B0006A838981282F30E03C832B838B819C8133
:1019C00081309105D1F02B813C81223031052CF4FE
:1019D0008B819C81009761F01EC02B813C8122305D
:1019E000310581F08B819C818330910581F013C09A
:1019F000EAE3F0E08A8180830EC0E7E3F0E08A81C9
:101A0000808309C0E4E3F0E08A81808304C0E1E3DD
:101A1000F0E08A8180830F900F900F900F90CF910C
:101A2000DF910895DF93CF9300D000D0CDB7DEB71C
:101A300089836A838981282F30E03C832B838B81C3
:101A40009C8181309105D1F02B813C812230310580
:101A50002CF48B819C81009761F01EC02B813C810E
:101A60002230310581F08B819C818330910581F09A
:101A700013C0EBE3F0E08A8180830EC0E8E3F0E07E
:101A80008A81808309C0E5E3F0E08A81808304C015
:101A9000E2E3F0E08A8180830F900F900F900F9027
:101AA000CF91DF910895DF93CF93CDB7DEB7A7E253
:101AB000B0E0E7E2F0E0808180648C93A7E2B0E0E0
:101AC000E7E2F0E080818F778C93A7E2B0E0E7E275
:101AD000F0E080818F7D8C93A6E2B0E0E6E2F0E05A
:101AE000808181608C93A6E2B0E0E6E2F0E0808144
:101AF00082608C93A6E2B0E0E6E2F0E08081846050
:101B00008C93A6E2B0E0E6E2F0E0808180688C93FE
:101B1000CF91DF910895DF93CF9300D00F92CDB78F
:101B2000DEB78B83A7E2B0E0E7E2F0E08081807E61
:101B30008C93A7E2B0E0E7E2F0E090818B81892B03
:101B40008C93A6E2B0E0E6E2F0E0808180648C93C2
:101B5000E6E2F0E08081882F90E0807190709595AA
:101B600087959595879595958795959587950097F0
:101B700079F3A6E2B0E0E6E2F0E0808180618C9348
:101B8000E4E2F0E08081882F90E09A838983E5E2A7
:101B9000F0E08081882F90E0982F88279C01898130
:101BA0009A81822B932B9A83898389819A810F90C2
:101BB0000F900F90CF91DF910895DF93CF93CDB722
:101BC000DEB7E8970FB6F894DEBF0FBECDBF83E057
:101BD0006FEF0E94D10C81E060E041E00E94190AA1
:101BE00081E061E041E00E94190A81E062E041E0A9
:101BF0000E94190A80E090E0A0EFB1E48DAB9EABAB
:101C0000AFABB8AF6DA97EA98FA998AD20E030E049
:101C10004AEF54E40E941F02DC01CB0189AB9AAB6E
:101C2000ABABBCAB69A97AA98BA99CA920E030E039
:101C300040E85FE30E94790388232CF481E090E080
:101C400098AB8FA73FC069A97AA98BA99CA920E06E
:101C50003FEF4FE757E40E94190318164CF56DA9A2
:101C60007EA98FA998AD20E030E040E251E40E94C7
:101C70001F02DC01CB01BC01CD010E944900DC0147
:101C8000CB0198AB8FA70FC088EC90E09EA78DA7E3
:101C90008DA59EA50197F1F79EA78DA78FA598A961
:101CA000019798AB8FA78FA598A9009769F714C0E3
:101CB00069A97AA98BA99CA90E944900DC01CB01E2
:101CC00098AB8FA78FA598A99CA78BA78BA59CA540
:101CD0000197F1F79CA78BA788E30E94D70F80E0BC
:101CE00090E0A0EAB0E48FA398A7A9A7BAA76FA134
:101CF00078A589A59AA520E030E04AEF54E40E9437
:101D00001F02DC01CB018BA39CA3ADA3BEA36BA1DF
:101D10007CA18DA19EA120E030E040E85FE30E941D
:101D2000790388232CF481E090E09AA389A33FC033
:101D30006BA17CA18DA19EA120E03FEF4FE757E46E
:101D40000E94190318164CF56FA178A589A59AA5CC
:101D500020E030E040E251E40E941F02DC01CB01B0
:101D6000BC01CD010E944900DC01CB019AA389A3EB
:101D70000FC088EC90E098A38F8F8F8D98A101976A
:101D8000F1F798A38F8F89A19AA101979AA389A3AC
:101D900089A19AA1009769F714C06BA17CA18DA1BC
:101DA0009EA10E944900DC01CB019AA389A389A1CD
:101DB0009AA19E8F8D8F8D8D9E8D0197F1F79E8FAD
:101DC0008D8F8CE00E94D70F80E090E0A0EAB0E415
:101DD000898F9A8FAB8FBC8F698D7A8D8B8D9C8DFF
:101DE00020E030E04AEF54E40E941F02DC01CB0106
:101DF0008D8B9E8BAF8BB88F6D897E898F89988DE7
:101E000020E030E040E85FE30E94790388232CF46F
:101E100081E090E09C8B8B8B3FC06D897E898F89A0
:101E2000988D20E03FEF4FE757E40E941903181602
:101E30004CF5698D7A8D8B8D9C8D20E030E040E2F1
:101E400051E40E941F02DC01CB01BC01CD010E94C4
:101E50004900DC01CB019C8B8B8B0FC088EC90E0A0
:101E60009A8B898B89899A890197F1F79A8B898B4B
:101E70008B899C8901979C8B8B8B8B899C89009784
:101E800069F714C06D897E898F89988D0E944900F9
:101E9000DC01CB019C8B8B8B8B899C89988B8F87EA
:101EA0008F8598890197F1F7988B8F8781E00E9441
:101EB000D70F80E090E0A0EAB0E48B879C87AD87E5
:101EC000BE876B857C858D859E8520E030E04AEF5E
:101ED00054E40E941F02DC01CB018F839887A987FD
:101EE000BA876F81788589859A8520E030E040E85F
:101EF0005FE30E94790388232CF481E090E09E83C5
:101F00008D833FC06F81788589859A8520E03FEF7A
:101F10004FE757E40E94190318164CF56B857C8532
:101F20008D859E8520E030E040E251E40E941F0252
:101F3000DC01CB01BC01CD010E944900DC01CB01D9
:101F40009E838D830FC088EC90E09C838B838B8174
:101F50009C810197F1F79C838B838D819E810197F2
:101F60009E838D838D819E81009769F714C06F8158
:101F7000788589859A850E944900DC01CB019E8382
:101F80008D838D819E819A83898389819A8101972E
:101F9000F1F79A83898386E00E94D70FE8960FB6FF
:101FA000F894DEBF0FBECDBFCF91DF910895DF93D0
:101FB000CF93CDB7DEB76D970FB6F894DEBF0FBEE7
:101FC000CDBF8D8F81E060E040E00E941D0B81E07D
:101FD00061E040E00E941D0B83E06D8D0E94120DB8
:101FE00081E062E041E00E941D0B80E090E0A0E80B
:101FF000BFE3898F9A8FAB8FBC8F698D7A8D8B8D64
:102000009C8D20E030E04AEF54E40E941F02DC0186
:10201000CB018D8B9E8BAF8BB88F6D897E898F891D
:10202000988D20E030E040E85FE30E947903882348
:102030002CF481E090E09C8B8B8B3FC06D897E8976
:102040008F89988D20E03FEF4FE757E40E941903F6
:1020500018164CF5698D7A8D8B8D9C8D20E030E0C3
:1020600040E251E40E941F02DC01CB01BC01CD0122
:102070000E944900DC01CB019C8B8B8B0FC088EC4C
:1020800090E09A8B898B89899A890197F1F79A8BCD
:10209000898B8B899C8901979C8B8B8B8B899C89E5
:1020A000009769F714C06D897E898F89988D0E9489
:1020B0004900DC01CB019C8B8B8B8B899C89988B95
:1020C0008F878F8598890197F1F7988B8F8781E0AB
:1020D00062E040E00E941D0B80E090E0A0E0B0E4F0
:1020E0008B879C87AD87BE876B857C858D859E851C
:1020F00020E030E04AEF54E40E941F02DC01CB01F3
:102100008F839887A987BA876F81788589859A8513
:1021100020E030E040E85FE30E94790388232CF45C
:1021200081E090E09E838D833FC06F8178858985B3
:102130009A8520E03FEF4FE757E40E9419031816F5
:102140004CF56B857C858D859E8520E030E040E2F6
:1021500051E40E941F02DC01CB01BC01CD010E94B1
:102160004900DC01CB019E838D830FC088EC90E099
:102170009C838B838B819C810197F1F79C838B835C
:102180008D819E8101979E838D838D819E81009795
:1021900069F714C06F81788589859A850E94490006
:1021A000DC01CB019E838D838D819E819A838983FF
:1021B00089819A810197F1F79A8389836D960FB689
:1021C000F894DEBF0FBECDBFCF91DF910895DF93AE
:1021D000CF93CDB7DEB76D970FB6F894DEBF0FBEC5
:1021E000CDBF8D8F81E060E041E00E941D0B81E05A
:1021F00061E040E00E941D0B83E06D8D0E94120D96
:1022000081E062E041E00E941D0B80E090E0A0E8E8
:10221000BFE3898F9A8FAB8FBC8F698D7A8D8B8D41
:102220009C8D20E030E04AEF54E40E941F02DC0164
:10223000CB018D8B9E8BAF8BB88F6D897E898F89FB
:10224000988D20E030E040E85FE30E947903882326
:102250002CF481E090E09C8B8B8B3FC06D897E8954
:102260008F89988D20E03FEF4FE757E40E941903D4
:1022700018164CF5698D7A8D8B8D9C8D20E030E0A1
:1022800040E251E40E941F02DC01CB01BC01CD0100
:102290000E944900DC01CB019C8B8B8B0FC088EC2A
:1022A00090E09A8B898B89899A890197F1F79A8BAB
:1022B000898B8B899C8901979C8B8B8B8B899C89C3
:1022C000009769F714C06D897E898F89988D0E9467
:1022D0004900DC01CB019C8B8B8B8B899C89988B73
:1022E0008F878F8598890197F1F7988B8F8781E089
:1022F00062E040E00E941D0B80E090E0A0E0B0E4CE
:102300008B879C87AD87BE876B857C858D859E85F9
:1023100020E030E04AEF54E40E941F02DC01CB01D0
:102320008F839887A987BA876F81788589859A85F1
:1023300020E030E040E85FE30E94790388232CF43A
:1023400081E090E09E838D833FC06F817885898591
:102350009A8520E03FEF4FE757E40E9419031816D3
:102360004CF56B857C858D859E8520E030E040E2D4
:1023700051E40E941F02DC01CB01BC01CD010E948F
:102380004900DC01CB019E838D830FC088EC90E077
:102390009C838B838B819C810197F1F79C838B833A
:1023A0008D819E8101979E838D838D819E81009773
:1023B00069F714C06F81788589859A850E944900E4
:1023C000DC01CB019E838D838D819E819A838983DD
:1023D00089819A810197F1F79A8389836D960FB667
:1023E000F894DEBF0FBECDBFCF91DF910895DF938C
:1023F000CF9300D00F92CDB7DEB79B838A8319822B
:102400000EC08981282F30E08A819B81FC01E20F78
:10241000F31F80810E94E71089818F5F8983898102
:10242000282F30E08A819B81FC01E20FF31F80811D
:10243000882339F70F900F900F90CF91DF91089577
:10244000DF93CF93CDB7DEB72E970FB6F894DEBFEC
:102450000FBECDBF81E00E94D70F80E090E0A0E0EA
:10246000B0E48B879C87AD87BE876B857C858D8527
:102470009E8520E030E04AEF54E40E941F02DC0118
:10248000CB018F839887A987BA876F8178858985E3
:102490009A8520E030E040E85FE30E9479038823DA
:1024A0002CF481E090E09E838D833FC06F8178851E
:1024B00089859A8520E03FEF4FE757E40E94190392
:1024C00018164CF56B857C858D859E8520E030E067
:1024D00040E251E40E941F02DC01CB01BC01CD01AE
:1024E0000E944900DC01CB019E838D830FC088ECE4
:1024F00090E09C838B838B819C810197F1F79C8377
:102500008B838D819E8101979E838D838D819E819A
:10251000009769F714C06F81788589859A850E9434
:102520004900DC01CB019E838D838D819E819A833E
:10253000898389819A810197F1F79A8389832E96FD
:102540000FB6F894DEBF0FBECDBFCF91DF910895D7
:10255000DF93CF9300D00F92CDB7DEB78A836B8322
:102560008A81882321F48B818058898303C08B81E1
:102570008054898389810E94D70F0F900F900F900C
:10258000CF91DF910895DF93CF93CDB7DEB76497F6
:102590000FB6F894DEBF0FBECDBF698B7A8B8B8BE5
:1025A0009C8B8DB79EB708970FB6F8949EBF0FBE51
:1025B0008DBFEDB7FEB73196CE0101969183808332
:1025C00080E690E09383828389899A89AB89BC896C
:1025D00084839583A683B7830E94CC198DB79EB759
:1025E00008960FB6F8949EBF0FBE8DBFCE01019620
:1025F0000E94F71164960FB6F894DEBF0FBECDBFF0
:10260000CF91DF910895DF93CF93CDB7DEB782E00E
:1026100060E040E00E94190A82E061E040E00E9430
:10262000190A82E062E040E00E94190A82E063E059
:1026300040E00E94190A82E060E041E00E941D0B28
:1026400082E061E041E00E941D0B82E062E041E037
:102650000E941D0B82E063E041E00E941D0B82E0BE
:1026600064E041E00E94190A82E065E041E00E94D6
:10267000190A82E066E041E00E94190A82E067E000
:1026800041E00E94190A82E064E041E00E941D0BD3
:1026900082E065E041E00E941D0B82E066E041E0DF
:1026A0000E941D0B82E067E041E00E941D0BCF916C
:1026B000DF910895DF93CF93CDB7DEB72B970FB699
:1026C000F894DEBF0FBECDBF8FEF8C831A82DFC0C0
:1026D00082E064E041E00E941D0B82E065E041E0A1
:1026E0000E941D0B82E066E041E00E941D0B82E02B
:1026F00067E041E00E941D0B8A81282F30E03B8774
:102700002A878A859B8581309105D9F02A853B856A
:10271000223031052CF48A859B85009761F022C018
:102720002A853B852230310591F08A859B8583304F
:10273000910599F017C082E064E040E00E941D0B13
:1027400011C082E065E040E00E941D0B0BC082E0FA
:1027500066E040E00E941D0B05C082E067E040E0BB
:102760000E941D0B1B828CC08B81282F30E0398783
:1027700028878885998581309105D9F02885398504
:10278000223031052CF488859985009761F022C0AC
:10279000288539852230310591F0888599858330E7
:1027A000910599F017C082E060E00E94210C8983B6
:1027B00011C082E061E00E94210C89830BC082E09D
:1027C00062E00E94210C898305C082E063E00E94E0
:1027D000210C89838981882309F04FC08B81482F80
:1027E00050E08A81282F30E0CA01880F991F880F96
:1027F000991F820F931FFC01E654FE4F80818C834A
:1028000036C08B81282F30E03F832E838E819F81BD
:1028100081309105D9F02E813F81223031052CF491
:102820008E819F81009761F022C02E813F812230EE
:10283000310591F08E819F818330910599F017C009
:1028400082E060E00E94210C898311C082E061E097
:102850000E94210C89830BC082E062E00E94210C5F
:10286000898305C082E063E00E94210C898389810D
:10287000882339F29C819D8310C08B818F5F8B836D
:102880008B81843008F470CF8A818F5F8A838A813C
:10289000843008F41DCF2FEF2D838D812B960FB63A
:1028A000F894DEBF0FBECDBFCF91DF910895DF93C7
:1028B000CF93CDB7DEB78091DC018F5F8093DC01D1
:1028C0008091DC018F3328F01092DC0181E080934D
:1028D000D601CF91DF910895DF93CF93CDB7DEB7C7
:1028E00081E08093D701CF91DF910895DF93CF935B
:1028F000CDB7DEB728970FB6F894DEBF0FBECDBFB9
:1029000098878F838F819885CC01A0E0B0E028E97B
:102910003AE340E050E0BC01CD010E945419DC01D3
:10292000CB01072E7AE0B695A795979587957A956E
:10293000D1F7702D8B839C83AD83BE838B819C816B
:10294000AD81BE8128EE33E040E050E0BC01CD0116
:102950000E947319DA01C9018A838B819C81AD8140
:10296000BE8128EE33E040E050E0BC01CD010E9482
:102970007319DC01CB0124E630E040E050E0BC01FB
:10298000CD010E947319DA01C90189838A81882FD8
:1029900090E0A0E0B0E0BC01CD010E94C31284E64B
:1029A00090E00E94F7118981882F90E0A0E0B0E0CC
:1029B000BC01CD010E94C31286E690E00E94F7118F
:1029C00028960FB6F894DEBF0FBECDBFCF91DF9132
:1029D0000895DF93CF9300D000D0CDB7DEB79C83AE
:1029E0008B838B819C81CC01A0E0B0E024EF31E0AF
:1029F00040E050E0BC01CD010E945419DC01CB0144
:102A0000072E7AE0B695A795979587957A95D1F791
:102A1000702D9A83898389819A81CC01A0E0B0E0EE
:102A2000BC01CD010E94C31288E690E00E94F7111C
:102A30000F900F900F900F90CF91DF910895DF933B
:102A4000CF9300D0CDB7DEB780E060E00E94A8123F
:102A50008091D401282F30E03A83298389819A819B
:102A60008330910599F129813A81243031057CF434
:102A700089819A8181309105F9F029813A8122304A
:102A80003105FCF489819A81009789F032C029814F
:102A90003A812530310521F189819A81853091056E
:102AA000D4F029813A8126303105F9F022C08AE636
:102AB00090E00E94F7111DC08BE790E00E94F71193
:102AC00018C08CE890E00E94F71113C08DE990E0E7
:102AD0000E94F7110EC08EEA90E00E94F71109C023
:102AE0008FEB90E00E94F71104C080ED90E00E940F
:102AF000F7110F900F90CF91DF910895DF93CF934F
:102B0000CDB7DEB7C154D0400FB6F894DEBF0FBECC
:102B1000CDBF1DAE1CAE1BAE1AAE8FEF89AF81E0EC
:102B200060E041E00E94190A81E061E041E00E941A
:102B3000190A81E062E041E00E94190A81E060E048
:102B400040E00E941D0B81E061E040E00E941D0B0F
:102B500081E062E040E00E941D0B0E94530D0E9444
:102B6000DD0D0E94031380E062E00E94ED072CE679
:102B700034E180E0B9010E94500980E00E94E2083F
:102B80000E94A3058CE70E94740787E594E10E94E8
:102B90008C070E9458070E94D10780E060E00E94E5
:102BA000A81281EE90E00E94F71181E060E00E949F
:102BB000A81282EF90E00E94F71180E090E0AAEF67
:102BC000B4E48DAB9EABAFABB8AF6DA97EA98FA9B6
:102BD00098AD20E030E04AEF54E40E941F02DC018F
:102BE000CB0189AB9AABABABBCAB69A97AA98BA97A
:102BF0009CA920E030E040E85FE30E94790388234D
:102C00002CF481E090E098AB8FA73FC069A97AA926
:102C10008BA99CA920E03FEF4FE757E40E941903DE
:102C200018164CF56DA97EA98FA998AD20E030E06B
:102C300040E251E40E941F02DC01CB01BC01CD0146
:102C40000E944900DC01CB0198AB8FA70FC088EC34
:102C500090E09EA78DA78DA59EA50197F1F79EA751
:102C60008DA78FA598A9019798AB8FA78FA598A935
:102C7000009769F714C069A97AA98BA99CA90E9439
:102C80004900DC01CB0198AB8FA78FA598A99CA721
:102C90008BA78BA59CA50197F1F79CA78BA70E94FA
:102CA000201280E060E00E94A81283E091E00E9480
:102CB000F71181E060E00E94A81284E191E00E9497
:102CC000F71189C00E945A1389AF89AD813321F46D
:102CD00081E08093D5010DC089AD823321F482E07B
:102CE0008093D50106C089AD833319F483E08093C6
:102CF000D50180E090E0A8E4B2E48FA398A7A9A74B
:102D0000BAA76FA178A589A59AA520E030E04AEF7F
:102D100054E40E941F02DC01CB018BA39CA3ADA352
:102D2000BEA36BA17CA18DA19EA120E030E040E874
:102D30005FE30E94790388232CF481E090E09AA35A
:102D400089A33FC06BA17CA18DA19EA120E03FEF94
:102D50004FE757E40E94190318164CF56FA178A5A8
:102D600089A59AA520E030E040E251E40E941F02CC
:102D7000DC01CB01BC01CD010E944900DC01CB018B
:102D80009AA389A30FC088EC90E098A38F8F8F8DB2
:102D900098A10197F1F798A38F8F89A19AA1019724
:102DA0009AA389A389A19AA1009769F714C06BA17E
:102DB0007CA18DA19EA10E944900DC01CB019AA3B8
:102DC00089A389A19AA19E8F8D8F8D8D9E8D01974C
:102DD000F1F79E8F8D8F8091D501882309F472CFF2
:102DE0000E94201280E060E00E94A81285E291E03B
:102DF0000E94F71181E060E00E94A8128091D50145
:102E0000813029F486E391E00E94F71111C080918E
:102E1000D501823029F487E491E00E94F71108C0BF
:102E20008091D501833021F488E591E00E94F7116B
:102E300080E090E8ABEBB4E4898F9A8FAB8FBC8FC6
:102E4000698D7A8D8B8D9C8D20E030E04AEF54E4C3
:102E50000E941F02DC01CB018D8B9E8BAF8BB88F44
:102E60006D897E898F89988D20E030E040E85FE3AE
:102E70000E94790388232CF481E090E09C8B8B8B5B
:102E80003FC06D897E898F89988D20E03FEF4FE7A5
:102E900057E40E94190318164CF5698D7A8D8B8DB5
:102EA0009C8D20E030E040E251E40E941F02DC01F2
:102EB000CB01BC01CD010E944900DC01CB019C8B00
:102EC0008B8B0FC088EC90E09A8B898B89899A89CB
:102ED0000197F1F79A8B898B8B899C8901979C8B41
:102EE0008B8B8B899C89009769F714C06D897E89CB
:102EF0008F89988D0E944900DC01CB019C8B8B8BC4
:102F00008B899C89988B8F878F8598890197F1F79A
:102F1000988B8F870E94201281E08093D40181E0FA
:102F200060E041E00E941D0B8091D701813089F45F
:102F30001092D70186E08093D40181E060E040E008
:102F40000E941D0B81E061E041E00E941D0B0E9488
:102F5000201280E00E948B0D9DAF8CAF81E00E941B
:102F60008B0D9BAF8AAF8091D401853031F1809178
:102F7000D401863011F18091D4018823F1F0809141
:102F8000D4018430D1F08CAD9DAD23E08D3D92070E
:102F900028F48AAD9BAD8C35910578F085E080935F
:102FA000D40181E060E040E00E941D0B81E061E01F
:102FB00041E00E941D0B0E9420128091D401282F15
:102FC00030E022963FAF2EAF229722968EAD9FAD76
:102FD00022978230910509F445C022962EAD3FAD6F
:102FE00022972330310574F422968EAD9FAD22973F
:102FF000009709F122962EAD3FAD22972130310581
:1030000001F19AC022968EAD9FAD22978430910532
:1030100009F492C022962EAD3FAD2297243031059F
:103020000CF442C022968EAD9FAD2297853091055B
:1030300009F468C081C081E060E040E00E941D0B9F
:103040007BC08CAD9DAD23E0873D920708F474C032
:1030500082E08093D4011092D9011092D8010E948D
:1030600020126AC08091D601813009F065C01092AB
:10307000D6018091D8019091D90101969093D90100
:103080008093D8018091D8019091D9018E3191051A
:1030900008F452C083E08093D4011092DB011092B7
:1030A000DA010E94201248C08091D501833039F1A5
:1030B0008091D601813009F03FC01092D6018091F5
:1030C000DA019091DB0101969093DB018093DA01A4
:1030D0008091DA019091DB018530910568F184E0FF
:1030E0008093D40181E060E040E00E941D0B81E00C
:1030F00062E041E00E941D0B0E9420121DC0109250
:10310000D6011AC08CAD9DAD33E08D3D9307A0F480
:103110008AAD9BAD8C35910578F481E08093D40124
:1031200081E060E041E00E941D0B81E061E040E051
:103130000E941D0B0E9420120E941F1581E060E07A
:103140000E94A8128091D401282F30E03FAF2EAF0B
:103150008EAD9FAD8530910559F02EAD3FAD263037
:103160003105A9F08EAD9FAD84309105A9F019C04D
:103170008AAD9BAD8C35910528F089E691E00E94DF
:10318000F7111FC08AE791E00E94F7111AC08BE87F
:1031900091E00E94F71115C08CE991E00E94F711AF
:1031A00010C08CAD9DAD0E9476148DEA91E00E9416
:1031B000F7118AAD9BAD0E94E9148FEA91E00E945D
:1031C000F71180E090E0A6E9B3E48B879C87AD8798
:1031D000BE876B857C858D859E8520E030E04AEF3B
:1031E00054E40E941F02DC01CB018F839887A987DA
:1031F000BA876F81788589859A8520E030E040E83C
:103200005FE30E94790388232CF481E090E09E83A1
:103210008D833FC06F81788589859A8520E03FEF57
:103220004FE757E40E94190318164CF56B857C850F
:103230008D859E8520E030E040E251E40E941F022F
:10324000DC01CB01BC01CD010E944900DC01CB01B6
:103250009E838D830FC088EC90E09C838B838B8151
:103260009C810197F1F79C838B838D819E810197CF
:103270009E838D838D819E81009769F755CE6F81E6
:10328000788589859A850E944900DC01CB019E835F
:103290008D838D819E819A83898389819A8101970B
:1032A000F1F79A83898340CE629FD001739FF0012A
:1032B000829FE00DF11D649FE00DF11D929FF00DC6
:1032C000839FF00D749FF00D659FF00D9927729FFD
:1032D000B00DE11DF91F639FB00DE11DF91FBD0188
:1032E000CF0111240895A1E21A2EAA1BBB1BFD01D8
:1032F0000DC0AA1FBB1FEE1FFF1FA217B307E407D5
:10330000F50720F0A21BB30BE40BF50B661F771F2C
:10331000881F991F1A9469F760957095809590950C
:103320009B01AC01BD01CF0108952F923F924F92B6
:103330005F926F927F928F929F92AF92BF92CF9245
:10334000DF92EF92FF920F931F93CF93DF93CDB74E
:10335000DEB7CA1BDB0B0FB6F894DEBF0FBECDBFC6
:1033600009942A88398848885F846E847D848C8497
:103370009B84AA84B984C884DF80EE80FD800C81A0
:103380001B81AA81B981CE0FD11D0FB6F894DEBF83
:103390000FBECDBFED010895AEE0B0E0E2EDF9E182
:1033A0000C94A3190D891E8986E08C831A830983E6
:1033B0008FEF9FE79E838D839E01275E3F4FCE0157
:1033C00001966F89788DA9010E94F0192F813885A7
:1033D000020F131FF80110822E96E4E00C94BF191F
:1033E000ABE0B0E0E6EFF9E10C9495193C012B015C
:1033F0005A01FC0117821682838181FD03C06FEFA1
:103400007FEFC6C19AE0892E1E010894211C311C51
:10341000F3012381F20123FD859123FF81912F0187
:10342000882309F4B2C1853239F423FD859123FF45
:1034300081912F01853229F490E0B3010E94E31BB2
:10344000E7CF982FFF24EE249924FFE1FF15D0F059
:103450009B3269F09C3228F4903259F0933291F407
:103460000EC09D3249F0903369F441E024C052E02F
:10347000F52A84E0F82A28C098E0F92A25C0E0E17E
:10348000FE2A22C0F7FC29C0892F80538A3070F4AD
:10349000F6FE05C0989C902C1124980E15C0E89C4F
:1034A000E02C1124E80EF0E2FF2A0EC09E3229F42F
:1034B000F6FC6BC140E4F42A07C09C3619F450E8CE
:1034C000F52A02C0983649F4F20123FD959123FFB5
:1034D00091912F01992309F0B8CF892F855483301A
:1034E00018F08052833038F444E050E0A40EB51E4A
:1034F0005FE359830FC0933631F0933779F09335FA
:1035000009F056C020C0F5018081898342E050E077
:10351000A40EB51E610101E010E012C0F501C080EB
:10352000D180F6FC03C06FEF7FEF02C0692D70E021
:1035300042E050E0A40EB51EC6010E94D81B8C01CB
:103540005FE7F52214C0F501C080D180F6FC03C00E
:103550006FEF7FEF02C0692D70E042E050E0A40EF3
:10356000B51EC6010E94CD1B8C0150E8F52AF3FE62
:1035700007C01AC080E290E0B3010E94E31BEA9406
:103580008E2D90E008171907A8F30EC0F601F7FC7E
:103590008591F7FE81916F0190E0B3010E94E31BDA
:1035A000E110EA94015010400115110579F7EAC0C5
:1035B000943611F0993669F5F7FE08C0F5012081BF
:1035C00031814281538184E090E00AC0F50180811D
:1035D00091819C01442737FD4095542F82E090E073
:1035E000A80EB91E9FE6F92257FF09C050954095D5
:1035F000309521953F4F4F4F5F4FE0E8FE2ACA01BB
:10360000B901A1012AE030E00E940F1CD82ED21887
:1036100040C0953729F41F2D1F7E2AE030E01DC0E1
:103620001F2D197F9F3661F0903720F4983509F0EF
:10363000ACC00FC0903739F0983709F0A6C004C06D
:1036400028E030E00AC0106114FD146020E130E091
:1036500004C014FD166020E132E017FF08C0F50138
:10366000608171818281938144E050E008C0F5015E
:1036700080819181BC0180E090E042E050E0A40EA6
:10368000B51EA1010E940F1CD82ED2188FE7F82E6C
:10369000F122F6FE0BC05EEFF522D91438F4F4FEE9
:1036A00007C0F2FC05C08FEEF82202C01D2D01C03C
:1036B000192DF4FE0DC0FE01ED0DF11D808180334A
:1036C00019F499EEF92208C01F5FF2FE05C003C08D
:1036D0008F2D867809F01F5F0F2DF3FC14C0F0FECC
:1036E0000FC01E1510F09D2C0BC09D2C9E0C911A26
:1036F0001E2D06C080E290E0B3010E94E31B1F5F15
:103700001E15C0F304C01E1510F4E11A01C0EE240A
:1037100004FF0FC080E390E0B3010E94E31B02FFAF
:103720001DC001FD03C088E790E00EC088E590E071
:103730000BC0802F867891F001FF02C08BE201C0A0
:1037400080E2F7FC8DE290E0B3010E94E31B06C02B
:1037500080E390E0B3010E94E31B9A94D914C0F374
:10376000DA94F101ED0DF11D808190E0B3010E942A
:10377000E31BDD20A9F706C080E290E0B3010E94C0
:10378000E31BEA94EE20C1F743CEF3016681778113
:10379000CB012B96E2E10C94B119FC01059061502C
:1037A00070400110D8F7809590958E0F9F1F089557
:1037B000FC016150704001900110D8F78095909500
:1037C0008E0F9F1F08950F931F93CF93DF938C014C
:1037D000EB018B8181FF1BC082FF0DC02E813F81D9
:1037E0008C819D812817390764F4E881F981019360
:1037F000F983E88306C0E885F985802F0995892B30
:1038000031F48E819F8101969F838E8302C00FEFDA
:103810001FEFC801DF91CF911F910F910895FA0119
:10382000AA27283051F1203181F1E8946F936E7FFF
:103830006E5F7F4F8F4F9F4FAF4FB1E03ED0B4E0F0
:103840003CD0670F781F891F9A1FA11D680F791F31
:103850008A1F911DA11D6A0F711D811D911DA11D42
:1038600020D009F468943F912AE0269F1124301952
:10387000305D3193DEF6CF010895462F4770405DED
:103880004193B3E00FD0C9F7F6CF462F4F70405D9C
:103890004A3318F0495D31FD4052419302D0A9F7F7
:1038A000EACFB4E0A6959795879577956795BA95F1
:1038B000C9F700976105710508959B01AC010A2EB7
:1038C00006945795479537952795BA95C9F7620F8E
:0E38D000731F841F951FA01D0895F894FFCF4D
:1038DE00256C64002E005600430053746174653AE3
:1038EE0049444C45202020202020005374617465EB
:1038FE003A42554C4B2020202020200053746174F6
:10390E00653A4142534F52422020202000537461A9
:10391E0074653A464C4F41542020202020005374A9
:10392E006174653A434F4D504C4554452020002A52
:10393E002A414C41524D2A2A2020202020202000AE
:10394E002A2A444953434F4E4E4543542A2A202097
:10395E0000426174746572792043686172676572A2
:10396E0020002053696D756C61746F722076312E54
:10397E0030200053656C656374204D6F64653A208A
:10398E0020202000313A536C7720323A467374204F
:10399E00333A5472004D6F64652053656C656374E1
:1039AE0065643A2020002020534C4F572043484155
:1039BE0052474520202000202046415354204348A2
:1039CE004152474520202000545249434B4C45203C
:1039DE004348415247452020004F5645522D5445ED
:1039EE004D5021202020202020004F5645522D568C
:1039FE004F4C544147452120202000426174204401
:103A0E006973636F6E6E656374656400436861729B
:103A1E00676520436F6D706C657465210020002012
:103A2E00200000000000000000003738392F343528
:0A3A3E00362A3132332D43303D2B80
:00000001FF
