:100000000C942A000C943F000C943F000C943F0089
:100010000C943F000C943F000C943F000C943F0064
:100020000C943F000C943F000C943F000C943F0054
:100030000C943F000C943F000C943F000C943F0044
:100040000C943F000C943F000C943F000C943F0034
:100050000C943F0011241FBECFE5D8E0DEBFCDBF1A
:1000600011E0A0E6B0E0ECEDF9E402C005900D92DD
:10007000A836B107D9F70E946A240C94EC240C949A
:100080000000EF92FF920F93DF93CF93CDB7DEB7CF
:1000900060970FB6F894DEBF0FBECDBFA82F002328
:1000A00009F461C07E010894E11CF11C88E0F701AD
:1000B00011928A95E9F729833A834B835C836D8398
:1000C0007E83AF83988780E2801BE82FFF27E7FDC0
:1000D000F09549815A816B817C81181684F01986CC
:1000E0001A861B861C86882799278E1B9F0B04C0A7
:1000F000440F551F661F771F8A95D2F728C0202FFF
:10010000332727FD3095DB01CA01022E04C0880F7A
:10011000991FAA1FBB1F0A94D2F789879A87AB87BA
:10012000BC8704C07695679557954795EA95D2F7B1
:100130008D819E81AF81B88504C0880F991FAA1F49
:10014000BB1F2A95D2F7482B592B6A2B7B2B4D8747
:100150005E876F87788B29853A854B855C856D85B1
:100160007E85AF8598898A2F60960FB6F894DEBF9A
:100170000FBECDBFCF91DF910F91FF90EF9008950B
:10018000EF92FF920F931F937B018C0120E030E0F0
:1001900040E05FE40E94A51088238CF0C801B701FD
:1001A00020E030E040E05FE40E941D0F0E94051156
:1001B0009B01AC01205030404040504806C0C8016F
:1001C000B7010E9405119B01AC01B901CA011F9141
:1001D0000F91FF90EF900895AEE5B0E0E2EFF0E010
:1001E0000C94B524A8E04E010894811C911CF401E4
:1001F0006A2E11926A94E9F729833A834B835C83D0
:100200006D837E838F839887CE010996FC011192BE
:10021000AA95E9F7A986BA86CB86DC86ED86FE86A6
:100220000F87188B29843A844B845C84ED84FE8488
:100230000F85188969807A808B809C806DA67EA648
:100240008FA698AA6D807E808F809884E114F10437
:100250000105110509F0B3C3621473048404950405
:1002600008F03DC100E0201600E0300601E0400645
:1002700000E0500688F41FEF2116310441045104B8
:1002800039F030F048E0E42EF12C012D112D18C08A
:10029000EE24FF24870114C020E0221620E032065D
:1002A00020E0420621E0520630F038E1E32EF12C46
:1002B000012D112D05C020E1E22EF12C012D112D73
:1002C000D201C1010E2C04C0B695A79597958795CC
:1002D0000A94D2F788599F4FDC012C9180E290E07C
:1002E000A0E0B0E08E199F09A00BB10B7C018D013D
:1002F000E21AF10801091109E114F10401051105DF
:10030000A1F10E2C04C0220C331C441C551C0A9471
:10031000D2F7A40193010E2C04C0220F331F441FF7
:10032000551F0A94D2F780E290E08E199F096DA4C0
:100330007EA48FA498A804C0969487947794679419
:100340008A95D2F7622A732A842A952AADA4BEA47C
:10035000CFA4D8A804C0AA0CBB1CCC1CDD1CEA94FA
:10036000D2F7ADA6BEA6CFA6D8AA6201EE24FF247E
:10037000CDAADEAAEFAAF8AE9201810120703070FA
:1003800009AF1AAF2BAF3CAFC401B301A70196016F
:100390000E9493247B018C01C401B3012DA93EA9C5
:1003A0004FA958AD0E949324C901DA013C014D01C7
:1003B000C401B30129AD3AAD4BAD5CAD0E947424CC
:1003C0009B01AC018701FF24EE24ADA4BEA4CFA401
:1003D000D8A8C601AA27BB2757016801A82AB92AAD
:1003E000CA2ADB2AA216B306C406D506E0F408948E
:1003F0006108710881089108A20CB31CC41CD51CAB
:10040000A214B304C404D50470F0A216B306C40643
:10041000D50648F408946108710881089108A20C77
:10042000B31CC41CD51CA21AB30AC40AD50AC6013F
:10043000B5012DA93EA94FA958AD0E9493247B0177
:100440008C01C601B5012DA93EA94FA958AD0E9446
:100450009324C901DA015C016D01C601B50129AD22
:100460003AAD4BAD5CAD0E9474249B01AC01870199
:10047000FF24EE248DA59EA5AFA5B8A9A070B070ED
:10048000E82AF92A0A2B1B2BE216F30604071507A4
:10049000C0F40894A108B108C108D108E20CF31C0B
:1004A000041D151DE214F3040405150550F0E216B1
:1004B000F3060407150728F40894A108B108C10839
:1004C000D108D3019927882786017501E82AF92ADE
:1004D0000A2B1B2BE9AAFAAA0BAB1CABCFC4211425
:1004E00031044104510471F461E070E080E090E077
:1004F00020E030E040E050E00E949324C901DA019E
:100500001C012D0100E0201600E0300601E040064D
:1005100000E0500688F41FEF211631044104510415
:1005200031F028F048E050E060E070E017C040E0B3
:1005300050E060E070E012C020E0221620E03206B9
:1005400020E0420621E0520628F048E150E060E059
:1005500070E004C040E150E060E070E0D201C10111
:10056000042E04C0B695A795979587950A94D2F75F
:1005700088599F4FDC012C91E0E2EE2EF12C012DE9
:10058000112DD801C701841B950BA60BB70B821B3D
:100590009109A109B1090097A105B10561F46401B0
:1005A0005301A218B308C408D50831E0632E712C9A
:1005B000812C912C1EC16F968FAF6F97082E04C0AF
:1005C000220C331C441C551C0A94D2F7EE2DE81B58
:1005D000640153010E2E04C0D694C794B794A79417
:1005E0000A94D2F7A40193016F960FAC6F9704C0E1
:1005F000220F331F441F551F0A94D2F76DA47EA407
:100600008FA498A80E2E04C096948794779467942C
:100610000A94D2F784017301E22AF32A042B152BE2
:10062000E9A6FAA60BA71CA73201882499249201F7
:1006300081012070307021960CAF1DAF2EAF3FAFFF
:100640002197C601B501A40193010E9493247B0167
:100650008C01C601B501A40193010E949324C90134
:10066000DA0125968CAF9DAFAEAFBFAF2597BC0129
:10067000CD0121962CAD3DAD4EAD5FAD21970E94D1
:1006800074249B01AC018701FF24EE24A9A4BAA421
:10069000CBA4DCA4C601AA27BB275C016D01AE2850
:1006A000BF28C02AD12AA216B306C406D50660F513
:1006B00025966CAD7DAD8EAD9FAD25976150704098
:1006C0008040904025966CAF7DAF8EAF9FAF259751
:1006D000A20CB31CC41CD51CA214B304C404D504BE
:1006E00098F0A216B306C406D50670F461507040A7
:1006F0008040904025966CAF7DAF8EAF9FAF259721
:10070000A20CB31CC41CD51CA21AB30AC40AD50A75
:10071000C601B501A40193010E9493247B018C01C1
:10072000C601B501A40193010E949324C901DA0115
:100730003C014D01C401B30121962CAD3DAD4EAD40
:100740005FAD21970E9474249B01AC018701FF24B7
:10075000EE2489A59AA5ABA5BCA5A070B0705701E1
:100760006801A82AB92ACA2ADB2AA216B306C40637
:10077000D506E0F408946108710881089108A20C7C
:10078000B31CC41CD51CA214B304C404D50470F05B
:10079000A216B306C406D50648F408946108710889
:1007A00081089108A20CB31CC41CD51C8DA59EA564
:1007B000AFA5B8A96F960FAC6F9704C0880F991FAB
:1007C000AA1FBB1F0A94D2F78DA79EA7AFA7B8ABED
:1007D000A21AB30AC40AD50A2596ECACFDAC0EAD3C
:1007E0001FAD2597D70199278827682A792A8A2A51
:1007F0009B2A82012227332729960CAF1DAF2EAFEB
:100800003FAF2997A2019101407050702D962CAFF7
:100810003DAF4EAF5FAF2D97C601B50129962CAD08
:100820003DAD4EAD5FAD29970E9493247B018C01B5
:10083000C601B50129962CAD3DAD4EAD5FAD2997F2
:100840000E949324C901DA0161968CAF9DAFAEAFCF
:10085000BFAF6197BC01CD012D962CAD3DAD4EAD26
:100860005FAD2D970E9474249B01AC018701FF248A
:10087000EE24ADA4BEA4CFA4D8A8C601AA27BB2746
:1008800057016801A82AB92ACA2ADB2AA216B30688
:10089000C406D50660F561966CAD7DAD8EAD9FAD9D
:1008A0006197615070408040904061966CAF7DAF21
:1008B0008EAF9FAF6197A20CB31CC41CD51CA214B1
:1008C000B304C404D50498F0A216B306C406D50632
:1008D00070F4615070408040904061966CAF7DAF85
:1008E0008EAF9FAF6197A20CB31CC41CD51CA21A7B
:1008F000B30AC40AD50AC601B50129962CAD3DAD8F
:100900004EAD5FAD29970E9493247B018C01C601F7
:10091000B50129962CAD3DAD4EAD5FAD29970E9436
:100920009324C901DA015C016D01C601B5012D9660
:100930002CAD3DAD4EAD5FAD2D970E9474249B0153
:10094000AC018701FF24EE248DA59EA5AFA5B8A913
:10095000A070B070E82AF92A0A2B1B2BE216F306C6
:1009600004071507C0F40894A108B108C108D1080C
:10097000E20CF31C041D151DE214F3040405150517
:1009800050F0E216F3060407150728F40894A108AE
:10099000B108C108D1086196ECACFDAC0EAD1FAD3D
:1009A0006197D7019927882796018501082B192B74
:1009B0002A2B3B2B09AB1AAB2BAB3CAB62C26E14A0
:1009C0007F048006910608F451C220E0E21620E080
:1009D000F20621E0020720E0120788F43FEFE31659
:1009E000F1040105110531F028F048E050E060E025
:1009F00070E017C040E050E060E070E012C040E0FE
:100A0000E41640E0F40640E0040741E0140728F053
:100A100048E150E060E070E004C040E150E060E098
:100A200070E0D801C701042E04C0B695A79597952C
:100A300087950A94D2F788599F4FDC012C9130E2B8
:100A4000A32EB12CC12CD12CD601C501841B950B32
:100A5000A60BB70B821B9109A109B1090097A1054B
:100A6000B10589F4E614F7040805190508F4F2C184
:100A70006DA47EA48FA498A86214730484049504C2
:100A800008F0E8C1F3C16E968FAF6E97082E04C0D0
:100A9000EE0CFF1C001F111F0A94D2F76A2D681B71
:100AA000D201C101062E04C0B695A79597958795EA
:100AB0000A94D2F75C016D01AE28BF28C02AD12A62
:100AC000ADA2BEA2CFA2D8A6720161016E960FACF4
:100AD0006E9704C0CC0CDD1CEE1CFF1C0A94D2F7F0
:100AE000C9A2DAA2EBA2FCA264015301062E04C043
:100AF000D694C794B794A7940A94D2F7D401C301AB
:100B00006E960FAC6E9704C0880F991FAA1FBB1F6B
:100B10000A94D2F7EDA4FEA40FA518A904C0169557
:100B20000795F794E7946A95D2F737014801682A48
:100B3000792A8A2A9B2A6D8E7E8E8F8E98A2EDA0AE
:100B4000FEA00FA118A538018824992498018701D7
:100B50002070307065960CAF1DAF2EAF3FAF65971C
:100B6000C601B501A40193010E9493247B018C016D
:100B7000C601B501A40193010E949324C901DA01C1
:100B80001C012D01C201B10165962CAD3DAD4EADEC
:100B90005FAD65970E9474249B01AC018701FF241F
:100BA000EE24AD8CBE8CCF8CD8A0C601AA27BB2763
:100BB00057016801A82AB92ACA2ADB2AA216B30655
:100BC000C406D50600F508942108310841085108EB
:100BD000EDA0FEA00FA118A5AE0CBF1CC01ED11E1B
:100BE000AE14BF04C006D10670F0A216B306C40648
:100BF000D50648F408942108310841085108AE0C84
:100C0000BF1CC01ED11EA21AB30AC40AD50AC6014F
:100C1000B501A40193010E9493247B018C01C601BC
:100C2000B501A40193010E949324C901DA013C019A
:100C30004D01C401B30165962CAD3DAD4EAD5FAD28
:100C400065970E9474249B01AC018701FF24EE2468
:100C50008D8D9E8DAF8DB8A1A070B07057016801C9
:100C6000A82AB92ACA2ADB2AA216B306C406D506C0
:100C700000F5089461087108810891086DA17EA1B2
:100C80008FA198A5A60EB71EC81ED91EA616B70618
:100C9000C806D90670F0A216B306C406D50648F4F5
:100CA00008946108710881089108A60EB71EC81E35
:100CB000D91ED601C501821B930BA40BB50B898FDE
:100CC0009A8FAB8FBC8FD10199278827640153017C
:100CD000A82AB92ACA2ADB2AA9AABAAACBAADCAAB4
:100CE000860175012FEF3FEF40E050E0E222F32252
:100CF00004231523A601662777276D964CAF5DAFB9
:100D00006EAF7FAF6D97A9A0BAA0CBA0DCA06FEFAC
:100D10007FEF80E090E0A622B722C822D92289A1E5
:100D20009AA1ABA1BCA11D0144245524C801B7015F
:100D3000A60195010E94742469966CAF7DAF8EAFB9
:100D40009FAF6997C801B701A20191010E94742465
:100D50003B014C016D966CAD7DAD8EAD9FAD6D9739
:100D6000A60195010E9474247B018C016D966CADE7
:100D70007DAD8EAD9FAD6D97A20191010E9474244F
:100D80005B016C01A8019701260D371D481D591DF7
:100D900069966CAC7DAC8EAC9FAC6997C401AA27F8
:100DA000BB27280F391F4A1F5B1F2E153F05400721
:100DB000510748F4E12CF12C61E0062F112DAE0C07
:100DC000BF1CC01ED11ECA01AA27BB27BC01CD0172
:100DD0006A0D7B1D8C1D9D1D698C7A8C8B8C9C8C67
:100DE000661677068806990640F166157705880528
:100DF000990509F043C0D9019927882769962CAD38
:100E00003DAD4EAD5FAD699740705070820F931F3E
:100E1000A41FB51F2DA53EA54FA558A96E960FACD2
:100E20006E9704C0220F331F441F551F0A94D2F738
:100E3000281739074A075B0708F509A91AA92BA93A
:100E40003CA9015010402040304009AB1AAB2BABFD
:100E50003CAB14C066247724430121E030E040E03D
:100E600050E029AB3AAB4BAB5CAB0BC066247724AC
:100E7000430119AA1AAA1BAA1CAA03C06624772434
:100E80004301FE01719688E0DF011D928A95E9F722
:100E9000A9A8BAA8CBA8DCA8A98ABA8ACB8ADC8A76
:100EA0006D8A7E8A8F8A988E29A93A894B895C89B6
:100EB000662D7E898F89988DC25ADF4FE2E10C94AE
:100EC000D124ABE5B0E0E7E6F7E00C94B524A8E068
:100ED0004E010894811C911CF4016A2E11926A94AF
:100EE000E9F729833A834B835C836D837E838F8309
:100EF0009887CE010996FC011192AA95E9F7A98677
:100F0000BA86CB86DC86ED86FE860F87188B298411
:100F10003A844B845C84AD84BE84CF84D888298194
:100F20003A814B815C8169962FAF69976A963FAF92
:100F30006A976B964FAF6B976C965FAF6C976C969A
:100F40006CAC7DAC8EAC9FAC6C9769AA7AAA8BAA6C
:100F50009CAA6D817E818F8198853B014C016DAA91
:100F60007EAA8FAA98AEA114B104C104D10409F0DD
:100F700004C3621473048404950408F000C100E003
:100F8000201600E0300601E0400600E0500688F43C
:100F90001FEF211631044104510439F030F088E08C
:100FA000E82EF12C012D112D18C0EE24FF2487010D
:100FB00014C040E0241640E0340640E0440641E01E
:100FC000540630F0B8E1EB2EF12C012D112D05C0A7
:100FD000A0E1EA2EF12C012D112DD201C1010E2C20
:100FE00004C0B695A795979587950A94D2F7885926
:100FF0009F4FDC012C9180E290E0A0E0B0E08E19E0
:101000009F09A00BB10B5C016D01A21AB108C108C8
:10101000D108A9AEBAAECBAEDCAEA114B104C10406
:10102000D10409F43FC069AD062E04C0220C331C64
:10103000441C551C0A94D2F7A4019301062E04C047
:10104000220F331F441F551F0A94D2F780E290E00D
:101050008A199B096C96CCACDDACEEACFFAC6C97FE
:1010600004C0F694E794D794C7948A95D2F7870181
:101070007601E22AF32A042B152BEDAAFEAA0FAB68
:1010800018AF6C968CAD9DADAEADBFAD6C9704C086
:10109000880F991FAA1FBB1F6A95D2F789AB9AAB1D
:1010A000ABABBCAB320188249924B201A1016070C2
:1010B000707021964CAF5DAF6EAF7FAF21976DA979
:1010C0007EA98FA998ADA40193010E9493247B016E
:1010D0008C016DA97EA98FA998ADA40193010E94EE
:1010E0009324CA01B90121962CAD3DAD4EAD5FAD43
:1010F00021970E9474249B01AC018701FF24EE24F8
:10110000A9A8BAA8CBA8DCA8C601AA27BB27570163
:101110006801A82AB92ACA2ADB2AA216B306C4067D
:10112000D50690F4A20CB31CC41CD51CA214B304A5
:10113000C404D50448F0A216B306C406D50620F4AC
:10114000A20CB31CC41CD51CA21AB30AC40AD50A2B
:10115000C601B501A40193010E9493247B018C0177
:10116000C601B501A40193010E949324CA01B901EB
:1011700021962CAD3DAD4EAD5FAD2197BAC1211486
:1011800031044104510471F461E070E080E090E0CA
:1011900020E030E040E050E00E949324C901DA01F1
:1011A0001C012D0100E0201600E0300601E04006A1
:1011B00000E0500688F41FEF211631044104510469
:1011C00039F030F068E0E62EF12C012D112D18C019
:1011D000EE24FF24870114C040E0241640E03406CA
:1011E00040E0440641E0540630F058E1E52EF12C91
:1011F000012D112D05C040E1E42EF12C012D112D02
:10120000D201C1010E2C04C0B695A795979587957C
:101210000A94D2F788599F4FDC012C9130E2A32E1B
:10122000B12CC12CD12CD601C5018E199F09A00B60
:10123000B10B7C018D01E21AF10801091109E9AE37
:10124000FAAE0BAF1CAFE114F1040105110539F43E
:1012500064015301A218B308C408D508E2C0F9AC70
:101260006896FFAE68970F2C04C0220C331C441CF8
:10127000551C0A94D2F78A2D8F1964015301082E48
:1012800004C0D694C794B794A7940A94D2F7A40143
:10129000930104C0220F331F441F551FFA94D2F745
:1012A0006C966CAC7DAC8EAC9FAC6C9704C0969485
:1012B0008794779467948A95D2F784017301E22A20
:1012C000F32A042B152BEDA6FEA60FA718AB3201AF
:1012D00088249924B201A1016070707025964CAFEA
:1012E0005DAF6EAF7FAF2597C601B501A401930135
:1012F0000E9493247B018C01C601B501A4019301D6
:101300000E949324CA01B90125962CAD3DAD4EAD86
:101310005FAD25970E9474249B01AC018701FF24D7
:10132000EE24ADA4BEA4CFA4D8A8C601AA27BB278B
:101330005C016D01AE28BF28C02AD12AA216B306CF
:10134000C406D50690F4A20CB31CC41CD51CA21470
:10135000B304C404D50448F0A216B306C406D506E7
:1013600020F4A20CB31CC41CD51CA21AB30AC40AD4
:10137000D50AC601B501A40193010E9493247B0103
:101380008C01C601B501A40193010E949324CA01F6
:10139000B90125962CAD3DAD4EAD5FAD25970E94B0
:1013A00074249B01AC018701FF24EE248DA59EA52A
:1013B000AFA5B8A9A070B07057016801A82AB92AD2
:1013C000CA2ADB2AA216B306C406D50690F4A20CDC
:1013D000B31CC41CD51CA214B304C404D50448F027
:1013E000A216B306C406D50620F4A20CB31CC41C76
:1013F000D51C6C96ECACFDAC0EAD1FAD6C97689631
:101400000FAC689704C0EE0CFF1C001F111F0A945C
:10141000D2F7E9AAFAAA0BAB1CABA21AB30AC40A08
:10142000D50A320188249924B201A101607070703C
:1014300029964CAF5DAF6EAF7FAF2997C601B5015E
:10144000A40193010E9493247B018C01C601B50184
:10145000A40193010E949324CA01B90129962CADDD
:101460003DAD4EAD5FAD29970E9474249B01AC0148
:101470008701FF24EE24A9A8BAA8CBA8DCA8C6013E
:10148000AA27BB2757016801A82AB92ACA2ADB2A3A
:10149000A216B306C406D50690F4A20CB31CC41C55
:1014A000D51CA214B304C404D50448F0A216B30694
:1014B000C406D50620F4A20CB31CC41CD51CA21A69
:1014C000B30AC40AD50AC601B501A40193010E945A
:1014D00093247B018C01C601B501A40193010E94F4
:1014E0009324CA01B90129962CAD3DAD4EAD5FAD37
:1014F00029970E9474249B01AC018701FF24EE24EC
:1015000089A99AA9ABA9BCA9A070B070E82AF92A48
:101510000A2B1B2BE216F3060407150790F4E20CC6
:10152000F31C041D151DE214F3040405150548F011
:10153000E216F3060407150720F4E20CF31C041D61
:10154000151DE21AF30A040B150BD801C70109ACEB
:1015500004C0B695A795979587950A94D2F7898B7D
:101560009A8BAB8BBC8B1D8A1E8A1F8A188E282FE4
:101570003A894B895C896D890CC36A147B048C049D
:101580009D0408F409C300E0A01600E0B00601E0E5
:10159000C00600E0D00688F41FEFA116B104C10414
:1015A000D10439F030F028E0E22EF12C012D112D7C
:1015B00018C0EE24FF24870114C040E0A41640E0C8
:1015C000B40640E0C40641E0D40630F098E1E92ECC
:1015D000F12C012D112D05C080E1E82EF12C012DFB
:1015E000112DD601C5010E2C04C0B695A79597956F
:1015F00087950A94D2F788599F4FDC012C9180E29D
:1016000090E0A0E0B0E08E199F09A00BB10B821B07
:101610009109A109B1090097A105B10509F04FC0D1
:10162000A614B704C804D90458F06C96ECACFDAC11
:101630000EAD1FAD6C97E214F3040405150568F1B7
:101640006C96ECACFDAC0EAD1FAD6C97E218F308D8
:1016500004091509A40193012A193B094C095D09E4
:10166000AA24BB2465016C966CAD7DAD8EAD9FAD9B
:101670006C976E157F058007910728F4B1E0AB2EBB
:10168000B12CC12CD12CDA01C9018A199B09AC09F2
:10169000BD098DAB9EABAFABB8AFE98AFA8A0B8BB5
:1016A0001C8B6DA87EA88FA898AC6D8A7E8A8F8AC5
:1016B000988E2E2D3A894B895C896DA96AC26796EE
:1016C0008FAF6797A6019501082E04C0220F331F24
:1016D000441F551F0A94D2F7A0E2AA2EA81A6696B4
:1016E000AFAE6697D201C10104C0B695A795979594
:1016F0008795AA94D2F76C017D01C22AD32AE42AE5
:10170000F52AC9A6DAA6EBA6FCA6820171016796A6
:101710000FAC679704C0EE0CFF1C001F111F0A944A
:10172000D2F7EDA2FEA20FA318A76401530166969B
:101730000FAC669704C0D694C794B794A7940A9444
:10174000D2F7A401930167960FAC679704C0220FEC
:10175000331F441F551F0A94D2F76C968CAD9DAD74
:10176000AEADBFAD6C9766960FAC669704C0B695EC
:10177000A795979587950A94D2F73C014D01622A67
:10178000732A842A952A69A27AA28BA29CA26C96BB
:10179000ECACFDAC0EAD1FAD6C9767960FAC6797C8
:1017A00004C0EE0CFF1C001F111F0A94D2F7ED8E2F
:1017B000FE8E0F8F18A349A55AA56BA57CA53B01EA
:1017C00088249924607070702D964CAF5DAF6EAF19
:1017D0007FAF2D97C601B501A40193010E94932408
:1017E0007B018C01C601B501A40193010E949324E1
:1017F000C901DA011C012D01C201B1012D962CADE8
:101800003DAD4EAD5FAD2D970E9474249B01AC01A0
:101810008701FF24EE24A9A0BAA0CBA0DCA0C601BA
:10182000AA27BB2757016801A82AB92ACA2ADB2A96
:10183000A216B306C406D50600F50894210831089F
:1018400041085108E9A4FAA40BA51CA5AE0CBF1CC5
:10185000C01ED11EAE14BF04C006D10670F0A21681
:10186000B306C406D50648F4089421083108410897
:101870005108AE0CBF1CC01ED11EA21AB30AC40A66
:10188000D50AC601B501A40193010E9493247B01EE
:101890008C01C601B501A40193010E949324C901E2
:1018A000DA013C014D01C401B3012D962CAD3DADD3
:1018B0004EAD5FAD2D970E9474249B01AC01870152
:1018C000FF24EE2489A19AA1ABA1BCA1A070B070A5
:1018D00057016801A82AB92ACA2ADB2AA216B30628
:1018E000C406D50600F508946108710881089108BE
:1018F00069A57AA58BA59CA5A60EB71EC81ED91EE4
:10190000A616B706C806D90670F0A216B306C40616
:10191000D50648F408946108710881089108A60E5C
:10192000B71EC81ED91ED601C501821B930BA40B7E
:10193000B50B898F9A8FAB8FBC8FD10199278827E0
:1019400084017301E82AF92A0A2B1B2B4FEFA42EDE
:101950004FEFB42EC12CD12CAE20BF20C022D122FB
:101960007801002711276DA07EA08FA098A44FEFCB
:101970005FEF60E070E064227522862297228DA1DD
:101980009EA1AFA1B8A5BD018827992765966CAF28
:101990007DAF8EAF9FAF6597C601B501A4019301DE
:1019A0000E94742461966CAF7DAF8EAF9FAF61973C
:1019B000C601B50165962CAD3DAD4EAD5FAD6597E9
:1019C0000E9474241B012C01C801B701A4019301DA
:1019D0000E9474245B016C01C801B70165962CADAF
:1019E0003DAD4EAD5FAD65970E9474247B018C01C7
:1019F000A6019501220D331D441D551D61966CAC49
:101A00007DAC8EAC9FAC6197C401AA27BB27280F81
:101A1000391F4A1F5B1F2A153B054C055D0548F41D
:101A2000812C912CE1E0AE2EB12CE80CF91C0A1DA2
:101A30001B1DCA01AA27BB2757016801A80EB91EA2
:101A4000CA1EDB1EA9013327222761968CAD9DADEE
:101A5000AEADBFAD6197A070B070280F391F4A1F9F
:101A60005B1FE98CFA8C0B8D1C8DEA14FB040C05B2
:101A70001D0570F0AE14BF04C006D10669F56D8D6A
:101A80007E8D8F8D98A1621773078407950720F5C7
:101A9000DA01C9016DA07EA08FA098A486199709CC
:101AA000A809B909E9A4FAA40BA51CA5AE18BF089A
:101AB000C00AD10AEE24FF248701281739074A07F4
:101AC0005B0728F421E0E22EF12C012D112DAE1838
:101AD000BF08C00AD10A02C0DA01C9016D8C7E8C30
:101AE0008F8C98A0681A790A8A0A9B0A498D5A8DA8
:101AF0006B8D7C8D4A195B096C097D095A016B015C
:101B00002224332421016D8D7E8D8F8D98A1661541
:101B100077058805990528F481E0282E312C412C81
:101B2000512C86017501E218F30804091509A80172
:101B3000970166960FAC669704C0220F331F441FAF
:101B4000551F0A94D2F7D401C30167960FAC67976B
:101B500004C0B695A795979587950A94D2F7282B38
:101B6000392B4A2B5B2B298B3A8B4B8B5C8B6796E3
:101B70000FAC679704C016950795F794E7940A94FD
:101B8000D2F7ED8AFE8A0F8B188F3A894B895C89D0
:101B90006E2D7E898F89988DC55ADF4FE2E10C94B6
:101BA000D124A0E0B0E0E7EDFDE00C94B524DC0129
:101BB0002B01FA019C91923008F439C1EB01888124
:101BC000823008F433C1943069F4843009F02FC1B5
:101BD00011969C9111978981981709F428C1A0E664
:101BE000B0E025C1843009F421C18230A9F49230DB
:101BF00009F01DC19A01AD0188E0EA010990AE012A
:101C0000E90109929E018150C1F7E2018981119693
:101C10009C918923818308C1923009F407C11296EF
:101C20002D903C901397EB018A819B811496AD9087
:101C3000BD90CD90DC901797EC80FD800E811F81C8
:101C40009101281B390BB90137FF04C0662777279C
:101C5000621B730B603271050CF061C01216130623
:101C60006CF537014801062E04C09694879477944A
:101C700067940A94D2F721E030E040E050E004C0DD
:101C8000220F331F441F551F6A95D2F72150304051
:101C9000404050402E213F21402351232115310542
:101CA0004105510521F021E030E040E050E07901AC
:101CB0008A01E628F728082919293CC0232BD1F1ED
:101CC000260E371E35014601062E04C096948794D1
:101CD000779467940A94D2F721E030E040E050E036
:101CE00004C0220F331F441F551F6A95D2F721509D
:101CF0003040404050402A213B214C215D2121159C
:101D000031054105510521F021E030E040E050E08F
:101D100059016A01A628B728C828D9280BC08215FE
:101D200093052CF01C01AA24BB24650103C0EE24FA
:101D3000FF24870111969C91D20111968C919817DE
:101D400009F445C0992339F0A80197012A193B09E4
:101D50004C095D0906C0A60195012E193F09400BEB
:101D6000510B57FD08C011823382228224833583B0
:101D7000468357831DC081E0818333822282882776
:101D80009927DC01821B930BA40BB50B84839583ED
:101D9000A683B7830DC0220F331F441F551F248312
:101DA000358346835783828193810197938382830E
:101DB0002481358146815781DA01C9010197A10942
:101DC000B1098F5F9F4FAF4FBF4328F30BC0918383
:101DD00033822282EA0CFB1C0C1D1D1DE482F5825D
:101DE0000683178383E08083248135814681578170
:101DF00057FF1AC0C901AA2797FDA095BA2F817075
:101E00009070A070B0705695479537952795822BA6
:101E1000932BA42BB52B84839583A683B7838281D0
:101E20009381019693838283DF0101C0D201CD01AA
:101E3000CDB7DEB7E2E10C94D124A0E2B0E0E3E25A
:101E4000FFE00C94C12469837A838B839C832D8368
:101E50003E834F835887E9E0EE2EF12CEC0EFD1EF9
:101E6000CE010196B7010E942E128E010F5E1F4F08
:101E7000CE010596B8010E942E128A8991E0892729
:101E80008A8BC701B801AE01475E5F4F0E94D10D3A
:101E90000E945911A096E6E00C94DD24A0E2B0E087
:101EA000E4E5FFE00C94C12469837A838B839C83EF
:101EB0002D833E834F835887F9E0EF2EF12CEC0EF3
:101EC000FD1ECE010196B7010E942E128E010F5EFB
:101ED0001F4FCE010596B8010E942E12C701B8010E
:101EE000AE01475E5F4F0E94D10D0E945911A0962E
:101EF000E6E00C94DD24A0E2B0E0E1E8FFE00C9421
:101F0000B52469837A838B839C832D833E834F839F
:101F10005887CE010196BE01675F7F4F0E942E1247
:101F2000CE010596BE016F5E7F4F0E942E129985ED
:101F3000923088F089898230C8F0943019F4823068
:101F400051F404C0843029F4923081F480E690E0AA
:101F5000C6C0923049F420E09A858A89981321E01E
:101F60002A87CE010996BBC0823049F420E09A85C9
:101F70008A89981321E02A8BCE014196B0C02D8426
:101F80003E844F8458886D887E888F88988CEE2494
:101F9000FF248701AA24BB24650140E050E060E0F3
:101FA00070E0E0E0F0E0C10181709070892BE9F011
:101FB000E60CF71C081D191D9A01AB012A0D3B1DEB
:101FC0004C1D5D1D80E090E0A0E0B0E0E614F70459
:101FD0000805190520F481E090E0A0E0B0E0BA0126
:101FE000A901480F591F6A1F7B1FAA0CBB1CCC1CE0
:101FF000DD1C97FE08C081E090E0A0E0B0E0A82AD8
:10200000B92ACA2ADB2A3196E032F10549F0660C7A
:10201000771C881C991C5694479437942794C3CFF7
:10202000FA85EA892B893C898B859C85280F391F85
:102030002E5F3F4F17C0CA0181709070892B61F0ED
:1020400016950795F794E79480E090E0A0E0B0E85B
:10205000E82AF92A0A2B1B2B769567955795479501
:102060002F5F3F4F77FDE7CF0CC0440F551F661F12
:10207000771F17FD4160EE0CFF1C001F111F215040
:102080003040403090E0590790E0690790E47907CC
:1020900060F32B8F3C8FDB01CA018F779070A070AB
:1020A000B07080349105A105B10561F447FD0AC007
:1020B000E114F1040105110529F0405C5F4F6F4FF9
:1020C0007F4F40781A8EFE1711F081E08A8F4D8F76
:1020D0005E8F6F8F78A383E0898FCE0149960E942F
:1020E0005911A096E2E10C94D124A8E1B0E0EBE70D
:1020F000F0E10C94C12469837A838B839C832D83C4
:102100003E834F83588789E0E82EF12CEC0EFD1EAC
:10211000CE010196B7010E942E128E010F5E1F4F55
:10212000CE010596B8010E942E128985823040F0BA
:102130008989823028F0C701B8010E94A61201C027
:102140008FEF6896E6E00C94DD24A8E1B0E0EBEABE
:10215000F0E10C94C12469837A838B839C832D8363
:102160003E834F83588789E0E82EF12CEC0EFD1E4C
:10217000CE010196B7010E942E128E010F5E1F4FF5
:10218000CE010596B8010E942E128985823040F05A
:102190008989823028F0C701B8010E94A61201C0C7
:1021A0008FEF6896E6E00C94DD24A8E1B0E0EBED5B
:1021B000F0E10C94C12469837A838B839C832D8303
:1021C0003E834F83588789E0E82EF12CEC0EFD1EEC
:1021D000CE010196B7010E942E128E010F5E1F4F95
:1021E000CE010596B8010E942E128985823040F0FA
:1021F0008989823028F0C701B8010E94A61201C067
:1022000081E06896E6E00C94DD24ACE0B0E0EBE021
:10221000F1E10C94C52469837A838B839C83CE017E
:102220000196BE016B5F7F4F0E942E128D8182301E
:1022300061F1823050F1843021F48E81882351F194
:102240002EC02F81388537FD20C06E812F3131059A
:102250001CF06623F9F023C08EE190E0821B930B03
:1022600029853A854B855C8504C0569547953795F9
:1022700027958A95D2F76623B1F050954095309511
:1022800021953F4F4F4F5F4F0EC020E030E040E0C0
:1022900050E009C02FEF3FEF4FEF5FE704C020E0B1
:1022A00030E040E050E8B901CA012C96E2E00C941D
:1022B000E124DF92EF92FF920F931F93FC01E480E1
:1022C000F58006811781D1808081823048F480E0DA
:1022D00090E0A0E1B0E0E82AF92A0A2B1B2BA5C068
:1022E000843009F49FC0823021F4EE24FF2487015A
:1022F00005C0E114F1040105110519F4E0E0F0E076
:1023000096C0628173819FEF623879070CF05BC0E1
:1023100022E83FEF261B370B2A3131052CF020E055
:1023200030E040E050E02AC0B801A701022E04C00E
:1023300076956795579547950A94D2F781E090E096
:10234000A0E0B0E004C0880F991FAA1FBB1F2A9508
:10235000D2F70197A109B1098E219F21A023B123B2
:102360000097A105B10521F081E090E0A0E0B0E088
:102370009A01AB01282B392B4A2B5B2BDA01C901BF
:102380008F779070A070B07080349105A105B10571
:1023900039F427FF09C0205C3F4F4F4F5F4F04C007
:1023A000215C3F4F4F4F5F4FE0E0F0E02030A0E076
:1023B0003A07A0E04A07A0E45A0710F0E1E0F0E095
:1023C00079018A0127C06038710564F5FB01E15885
:1023D000FF4FD801C7018F779070A070B070803424
:1023E0009105A105B10539F4E7FE0DC080E490E048
:1023F000A0E0B0E004C08FE390E0A0E0B0E0E80E21
:10240000F91E0A1F1B1F17FF05C016950795F794A5
:10241000E794319687E016950795F794E7948A95A7
:10242000D1F705C0EE24FF248701EFEFF0E06E2F17
:10243000679566276795902F9F77D794DD24D7946B
:102440008E2F8695492F462B582F5D29B701CA013B
:102450001F910F91FF90EF90DF900895FC01DB0139
:10246000408151812281622F6F7770E0221F2227E5
:10247000221F9381892F880F822B282F30E0991FEC
:102480009927991F11969C93119721153105A9F54C
:10249000411551056105710511F482E037C082E8EC
:1024A0009FEF13969C938E9312979A01AB0167E06E
:1024B000220F331F441F551F6A95D1F783E08C9379
:1024C0000DC0220F331F441F551F12968D919C91F2
:1024D0001397019713969C938E931297203080E068
:1024E000380780E0480780E4580758F314962D9386
:1024F0003D934D935C93179708952F3F310579F4E1
:10250000411551056105710519F484E08C93089516
:1025100064FF03C081E08C9312C01C9210C02F573F
:10252000304013963C932E93129783E08C9387E070
:10253000440F551F661F771F8A95D1F77064149654
:102540004D935D936D937C93179708951F93DC01D2
:10255000FB019C91923008F447C08081823008F4DE
:1025600043C0943051F411961C91843099F58181C7
:10257000682F70E0611B71093FC0843021F09230F8
:1025800031F48230B9F18181882389F12DC011960F
:102590001C9111978230F1F081811817D9F41296AD
:1025A0002D913C911397828193818217930794F028
:1025B00028173907BCF014968D919D910D90BC9110
:1025C000A02D2481358146815781281739074A0774
:1025D0005B0718F4112341F00AC082179307A40780
:1025E000B50740F4112319F061E070E005C06FEF0A
:1025F0007FEF02C060E070E0CB011F910895DF9390
:10260000CF93CDB7DEB728970FB6F894DEBF0FBED5
:10261000CDBF8A836B834C8381E089838A81843038
:1026200008F0F1C08B81883008F0EDC08C818130DA
:1026300009F06FC08A81282F30E038872F838F817F
:1026400098858130910549F12F81388522303105F7
:102650002CF48F819885009761F0D6C02F81388542
:102660002230310571F18F81988583309105E9F130
:10267000CBC0AAE3B0E0EAE3F0E08081482F8B8191
:10268000282F30E081E090E0022E02C0880F991FD1
:102690000A94E2F7842B8C93B7C0A7E3B0E0E7E39A
:1026A000F0E08081482F8B81282F30E081E090E09E
:1026B000022E02C0880F991F0A94E2F7842B8C9394
:1026C000A3C0A4E3B0E0E4E3F0E08081482F8B8175
:1026D000282F30E081E090E0022E02C0880F991F81
:1026E0000A94E2F7842B8C938FC0A1E3B0E0E1E37E
:1026F000F0E08081482F8B81282F30E081E090E04E
:10270000022E02C0880F991F0A94E2F7842B8C9343
:102710007BC08C81882309F074C08A81282F30E027
:102720003E832D838D819E818130910559F12D81CC
:102730003E81223031052CF48D819E81009769F015
:1027400063C02D813E812230310589F18D819E81CA
:102750008330910509F440C057C0AAE3B0E0EAE332
:10276000F0E08081482F8B81282F30E081E090E0DD
:10277000022E02C0880F991F0A94E2F780958423E5
:102780008C9342C0A7E3B0E0E7E3F0E08081482FFC
:102790008B81282F30E081E090E0022E02C0880F6C
:1027A000991F0A94E2F7809584238C932DC0A4E3AB
:1027B000B0E0E4E3F0E08081482F8B81282F30E007
:1027C00081E090E0022E02C0880F991F0A94E2F780
:1027D000809584238C9318C0A1E3B0E0E1E3F0E09E
:1027E0008081482F8B81282F30E081E090E0022EFD
:1027F00002C0880F991F0A94E2F7809584238C9376
:1028000003C0198201C01982898128960FB6F894F5
:10281000DEBF0FBECDBFCF91DF910895DF93CF9381
:10282000CDB7DEB728970FB6F894DEBF0FBECDBF89
:102830008A836B834C8381E089838A81843008F0AA
:10284000F1C08B81883008F0EDC08C81813009F0B7
:102850006FC08A81282F30E038872F838F81988539
:102860008130910549F12F813885223031052CF4D2
:102870008F819885009761F0D6C02F8138852230EE
:10288000310571F18F81988583309105E9F1CBC0D5
:10289000ABE3B0E0EBE3F0E08081482F8B81282FA1
:1028A00030E081E090E0022E02C0880F991F0A9468
:1028B000E2F7842B8C93B7C0A8E3B0E0E8E3F0E044
:1028C0008081482F8B81282F30E081E090E0022E1C
:1028D00002C0880F991F0A94E2F7842B8C93A3C03F
:1028E000A5E3B0E0E5E3F0E08081482F8B81282F5D
:1028F00030E081E090E0022E02C0880F991F0A9418
:10290000E2F7842B8C938FC0A2E3B0E0E2E3F0E027
:102910008081482F8B81282F30E081E090E0022ECB
:1029200002C0880F991F0A94E2F7842B8C937BC016
:102930008C81882309F074C08A81282F30E03E837F
:102940002D838D819E818130910559F12D813E81AC
:10295000223031052CF48D819E81009769F063C08F
:102960002D813E812230310589F18D819E81833018
:10297000910509F440C057C0ABE3B0E0EBE3F0E0F1
:102980008081482F8B81282F30E081E090E0022E5B
:1029900002C0880F991F0A94E2F7809584238C93D4
:1029A00042C0A8E3B0E0E8E3F0E08081482F8B81EB
:1029B000282F30E081E090E0022E02C0880F991F9E
:1029C0000A94E2F7809584238C932DC0A5E3B0E0B0
:1029D000E5E3F0E08081482F8B81282F30E081E013
:1029E00090E0022E02C0880F991F0A94E2F78095AA
:1029F00084238C9318C0A2E3B0E0E2E3F0E080818E
:102A0000482F8B81282F30E081E090E0022E02C019
:102A1000880F991F0A94E2F7809584238C9303C052
:102A2000198201C01982898128960FB6F894DEBFF9
:102A30000FBECDBFCF91DF910895DF93CF93CDB778
:102A4000DEB727970FB6F894DEBF0FBECDBF8A83DF
:102A50006B835D834C8381E089838A81843008F0B5
:102A6000A6C08B81883008F0A2C08A81282F30E070
:102A70003F832E834E815F8141305105C1F18E81AC
:102A80009F818230910534F42E813F8121153105DB
:102A900071F08EC04E815F814230510509F447C00C
:102AA0008E819F818330910509F461C081C0E9E383
:102AB000F0E08081482F50E08B81282F30E081E0CA
:102AC00090E002C0880F991F2A95E2F79A01282307
:102AD00039238B81882F90E0A90102C05595479535
:102AE0008A95E2F7CA01EC81FD81808361C0E6E34B
:102AF000F0E08081482F50E08B81282F30E081E08A
:102B000090E002C0880F991F2A95E2F79A012823C6
:102B100039238B81882F90E0A90102C055954795F4
:102B20008A95E2F7CA01EC81FD81808341C0E3E32D
:102B3000F0E08081482F50E08B81282F30E081E049
:102B400090E002C0880F991F2A95E2F79A01282386
:102B500039238B81882F90E0A90102C055954795B4
:102B60008A95E2F7CA01EC81FD81808321C0E0E310
:102B7000F0E08081482F50E08B81282F30E081E009
:102B800090E002C0880F991F2A95E2F79A01282346
:102B900039238B81882F90E0A90102C05595479574
:102BA0008A95E2F7CA01EC81FD81808301C0198218
:102BB000898127960FB6F894DEBF0FBECDBFCF91A7
:102BC000DF910895DF93CF9300D000D00F92CDB75F
:102BD000DEB78A836B8381E089838B81883008F03C
:102BE0006FC08A81282F30E03D832C838C819D81AA
:102BF0008130910549F12C813D81223031052CF441
:102C00008C819D81009761F05CC02C813D812230D8
:102C1000310571F18C819D8183309105E9F151C0BD
:102C2000ABE3B0E0EBE3F0E08081482F8B81282F0D
:102C300030E081E090E0022E02C0880F991F0A94D4
:102C4000E2F784278C933DC0A8E3B0E0E8E3F0E02E
:102C50008081482F8B81282F30E081E090E0022E88
:102C600002C0880F991F0A94E2F784278C9329C029
:102C7000A5E3B0E0E5E3F0E08081482F8B81282FC9
:102C800030E081E090E0022E02C0880F991F0A9484
:102C9000E2F784278C9315C0A2E3B0E0E2E3F0E012
:102CA0008081482F8B81282F30E081E090E0022E38
:102CB00002C0880F991F0A94E2F784278C9301C001
:102CC000198289810F900F900F900F900F90CF91E4
:102CD000DF910895DF93CF9300D000D000D0CDB71F
:102CE000DEB78A836B834C8381E089838A81843059
:102CF00008F03EC18B81883008F03AC18A81282FC4
:102D000030E03E832D838D819E818130910509F4D1
:102D10005DC02D813E81223031052CF48D819E8154
:102D2000009771F026C12D813E812230310509F4D2
:102D300093C08D819E818330910509F4D3C019C160
:102D40008C81813071F5A0E5B0E0E0E5F0E08081B4
:102D50008B7F8C93AAE3B0E0EAE3F0E08081482F18
:102D60008B81282F30E081E090E002C0880F991F0E
:102D70002A95E2F7809584238C93ABE3B0E0EBE3F4
:102D8000F0E08081482F8B81282F30E081E090E0B7
:102D9000022E02C0880F991F0A94E2F7842B8C93AD
:102DA000E8C0ABE3B0E0EBE3F0E08081482F8B813B
:102DB000282F30E081E090E0022E02C0880F991F9A
:102DC0000A94E2F7809584238C93D3C08C81813060
:102DD00071F5A0E5B0E0E0E5F0E080818B7F8C93B9
:102DE000A7E3B0E0E7E3F0E08081482F8B81282F54
:102DF00030E081E090E002C0880F991F2A95E2F749
:102E0000809584238C93A8E3B0E0E8E3F0E0808130
:102E1000482F8B81282F30E081E090E0022E02C005
:102E2000880F991F0A94E2F7842B8C93A2C0A8E321
:102E3000B0E0E8E3F0E08081482F8B81282F30E07C
:102E400081E090E0022E02C0880F991F0A94E2F7F9
:102E5000809584238C938DC08C81813071F5A0E5A1
:102E6000B0E0E0E5F0E080818B7F8C93A4E3B0E0FC
:102E7000E4E3F0E08081482F8B81282F30E081E06F
:102E800090E002C0880F991F2A95E2F7809584236D
:102E90008C93A5E3B0E0E5E3F0E08081482F8B81DF
:102EA000282F30E081E090E0022E02C0880F991FA9
:102EB0000A94E2F7842B8C935CC0A5E3B0E0E5E3D1
:102EC000F0E08081482F8B81282F30E081E090E076
:102ED000022E02C0880F991F0A94E2F7809584237E
:102EE0008C9347C08C81813071F5A0E5B0E0E0E5BE
:102EF000F0E080818B7F8C93A1E3B0E0E1E3F0E030
:102F00008081482F8B81282F30E081E090E002C043
:102F1000880F991F2A95E2F7809584238C93A2E36A
:102F2000B0E0E2E3F0E08081482F8B81282F30E091
:102F300081E090E0022E02C0880F991F0A94E2F708
:102F4000842B8C9316C0A2E3B0E0E2E3F0E0808132
:102F5000482F8B81282F30E081E090E0022E02C0C4
:102F6000880F991F0A94E2F7809584238C9301C0FF
:102F70001982898126960FB6F894DEBF0FBECDBFA9
:102F8000CF91DF910895DF93CF9300D000D00F92BF
:102F9000CDB7DEB78A836B8381E089838A818430F1
:102FA000A8F58A81282F30E03D832C838C819D8178
:102FB00081309105D1F02C813D81223031052CF4F6
:102FC0008C819D81009761F01FC02C813D81223052
:102FD000310581F08C819D818330910581F014C091
:102FE000EAE3F0E08B81808312C0E7E3F0E08B81BD
:102FF00080830DC0E4E3F0E08B81808308C0E1E3CF
:10300000F0E08B81808303C0198201C0198289811D
:103010000F900F900F900F900F90CF91DF91089528
:10302000DF93CF9300D000D00F92CDB7DEB78A8365
:103030006B8381E089838A818430A8F58A81282F77
:1030400030E03D832C838C819D8181309105D1F0CE
:103050002C813D81223031052CF48C819D8100979B
:1030600061F01FC02C813D812230310581F08C81BF
:103070009D818330910581F014C0EBE3F0E08B81FA
:10308000808312C0E8E3F0E08B8180830DC0E5E32C
:10309000F0E08B81808308C0E2E3F0E08B818083E5
:1030A00003C0198201C0198289810F900F900F907F
:1030B0000F900F90CF91DF910895DF93CF9300D0C1
:1030C00000D0CDB7DEB78A8381E089838A818430DE
:1030D00008F03FC08A81282F30E03C832B838B810E
:1030E0009C8181309105E9F02B813C8122303105B2
:1030F0002CF48B819C81009761F02CC02B813C814A
:1031000022303105B1F08B819C8183309105C9F06B
:1031100021C0ABE3B0E0EBE3F0E0808180958C93DD
:1031200019C0A8E3B0E0E8E3F0E0808180958C93DB
:1031300011C0A5E3B0E0E5E3F0E0808180958C93D9
:1031400009C0A2E3B0E0E2E3F0E0808180958C93D7
:1031500001C0198289810F900F900F900F90CF912D
:10316000DF910895DF93CF9300D000D000D0CDB78A
:10317000DEB78A837C836B8381E089838A81843094
:10318000E8F58A81282F30E03E832D838D819E8152
:1031900081309105E1F02D813E81223031052CF402
:1031A0008D819E81009761F027C02D813E81223064
:1031B0003105A1F08D819E8183309105B1F01CC055
:1031C000E9E3F0E08081EB81FC81808318C0E6E3D5
:1031D000F0E08081EB81FC81808311C0E3E3F0E0CB
:1031E0008081EB81FC8180830AC0E0E3F0E0808194
:1031F000EB81FC81808303C0198201C0198289811F
:1032000026960FB6F894DEBF0FBECDBFCF91DF91EB
:103210000895DF93CF9300D000D00F92CDB7DEB7E3
:103220008A836B8381E089838A81843008F063C05C
:103230008B818295807F8B838A81282F30E03D832C
:103240002C838C819D818130910529F12C813D81D8
:10325000223031052CF48C819D81009761F04CC0A7
:103260002C813D812230310531F18C819D8183306B
:10327000910589F141C0ABE3B0E0EBE3F0E0808180
:103280008F708C93ABE3B0E0EBE3F0E090818B8147
:10329000892B8C9331C0A8E3B0E0E8E3F0E08081B3
:1032A0008F708C93A8E3B0E0E8E3F0E090818B812D
:1032B000892B8C9321C0A5E3B0E0E5E3F0E08081A9
:1032C0008F708C93A5E3B0E0E5E3F0E090818B8113
:1032D000892B8C9311C0A2E3B0E0E2E3F0E080819F
:1032E0008F708C93A2E3B0E0E2E3F0E090818B81F9
:1032F000892B8C9301C0198289810F900F900F90B8
:103300000F900F90CF91DF910895DF93CF9300D06E
:1033100000D00F92CDB7DEB78A836B8381E08983BB
:103320008A81843008F062C08B818F708B838A81A0
:10333000282F30E03D832C838C819D818130910545
:1033400029F12C813D81223031052CF48C819D8125
:10335000009761F04CC02C813D812230310531F164
:103360008C819D818330910589F141C0ABE3B0E050
:10337000EBE3F0E08081807F8C93ABE3B0E0EBE3A4
:10338000F0E090818B81892B8C9331C0A8E3B0E071
:10339000E8E3F0E08081807F8C93A8E3B0E0E8E38D
:1033A000F0E090818B81892B8C9321C0A5E3B0E064
:1033B000E5E3F0E08081807F8C93A5E3B0E0E5E376
:1033C000F0E090818B81892B8C9311C0A2E3B0E057
:1033D000E2E3F0E08081807F8C93A2E3B0E0E2E35F
:1033E000F0E090818B81892B8C9301C019828981B7
:1033F0000F900F900F900F900F90CF91DF91089545
:103400000F931F93DF93CF93CDB7DEB7C654D04051
:103410000FB6F894DEBF0FBECDBFFE01ED5BFF4FD0
:1034200080E090E0A8E4B2E480839183A283B38338
:103430008E01015C1F4FFE01ED5BFF4F60817181CA
:103440008281938120E030E04AEF54E40E947B0FB8
:10345000DC01CB01F80180839183A283B383FE0159
:10346000FF96608171818281938120E030E040E8A5
:103470005FE30E94D51088232CF481E090E09EAF9A
:103480008DAF46C0FE01FF9660817181828193817C
:1034900020E03FEF4FE757E40E947510181664F5DF
:1034A000FE01ED5BFF4F608171818281938120E09D
:1034B00030E040E251E40E947B0FDC01CB01BC0113
:1034C000CD010E94C000DC01CB019EAF8DAF0FC0CB
:1034D00088EC90E09CAF8BAF8BAD9CAD0197F1F782
:1034E0009CAF8BAF8DAD9EAD01979EAF8DAF8DAD77
:1034F0009EAD009769F716C0FE01FF96608171814D
:10350000828193810E94C000DC01CB019EAF8DAF10
:103510008DAD9EAD9AAF89AF89AD9AAD0197F1F7A8
:103520009AAF89AF80E064E041E00E94FF1280E042
:1035300065E041E00E94FF1280E066E041E00E9409
:10354000FF1280E067E041E00E94FF1281E061E04D
:1035500041E00E94FF1281E062E041E00E94FF1220
:1035600081E063E041E00E94FF1282E00E94371D8B
:1035700080E090E0A0EFB1E48DAB9EABAFABB8AF15
:103580006DA97EA98FA998AD20E030E04AEF54E400
:103590000E947B0FDC01CB0189AB9AABABABBCAB20
:1035A00069A97AA98BA99CA920E030E040E85FE3F3
:1035B0000E94D51088232CF481E090E098AB8FA76F
:1035C0003FC069A97AA98BA99CA920E03FEF4FE7EA
:1035D00057E40E94751018164CF56DA97EA98FA9A5
:1035E00098AD20E030E040E251E40E947B0FDC0126
:1035F000CB01BC01CD010E94C000DC01CB0198AB26
:103600008FA70FC088EC90E09EA78DA78DA59EA5E3
:103610000197F1F79EA78DA78FA598A9019798AB61
:103620008FA78FA598A9009769F714C069A97AA9EF
:103630008BA99CA90E94C000DC01CB0198AB8FA78D
:103640008FA598A99CA78BA78BA59CA50197F1F79F
:103650009CA78BA788E20E94371D80E090E0A0E83D
:10366000BFE38FA398A7A9A7BAA76FA178A589A53B
:103670009AA520E030E04AEF54E40E947B0FDC0181
:10368000CB018BA39CA3ADA3BEA36BA17CA18DA1F9
:103690009EA120E030E040E85FE30E94D51088233F
:1036A0002CF481E090E09AA389A33FC06BA17CA198
:1036B0008DA19EA120E03FEF4FE757E40E947510D7
:1036C00018164CF56FA178A589A59AA520E030E0E1
:1036D00040E251E40E947B0FDC01CB01BC01CD0133
:1036E0000E94C000DC01CB019AA389A30FC088EC23
:1036F00090E098A38F8F8F8D98A10197F1F798A3F1
:103700008F8F89A19AA101979AA389A389A19AA1D0
:10371000009769F714C06BA17CA18DA19EA10E94A6
:10372000C000DC01CB019AA389A389A19AA19E8F35
:103730008D8F8D8D9E8D0197F1F79E8F8D8F8CE0F3
:103740000E94371D80E090E0A0E8BFE3898F9A8F48
:10375000AB8FBC8F698D7A8D8B8D9C8D20E030E096
:103760004AEF54E40E947B0FDC01CB018D8B9E8BD2
:10377000AF8BB88F6D897E898F89988D20E030E07E
:1037800040E85FE30E94D51088232CF481E090E0AC
:103790009C8B8B8B3FC06D897E898F89988D20E0B3
:1037A0003FEF4FE757E40E94751018164CF5698DEE
:1037B0007A8D8B8D9C8D20E030E040E251E40E94B8
:1037C0007B0FDC01CB01BC01CD010E94C000DC01FC
:1037D000CB019C8B8B8B0FC088EC90E09A8B898BF4
:1037E00089899A890197F1F79A8B898B8B899C89B2
:1037F00001979C8B8B8B8B899C89009769F714C0F0
:103800006D897E898F89988D0E94C000DC01CB0173
:103810009C8B8B8B8B899C89988B8F878F859889C4
:103820000197F1F7988B8F870E94E12286E00E9432
:10383000371D80E090E0A0E8BFE38B879C87AD87D1
:10384000BE876B857C858D859E8520E030E04AEFC4
:1038500054E40E947B0FDC01CB018F839887A987FA
:10386000BA876F81788589859A8520E030E040E8C5
:103870005FE30E94D51088232CF481E090E09E83C2
:103880008D833FC06F81788589859A8520E03FEFE1
:103890004FE757E40E94751018164CF56B857C8530
:1038A0008D859E8520E030E040E251E40E947B0F50
:1038B000DC01CB01BC01CD010E94C000DC01CB01C9
:1038C0009E838D830FC088EC90E09C838B838B81DB
:1038D0009C810197F1F79C838B838D819E81019759
:1038E0009E838D838D819E81009769F714C06F81BF
:1038F000788589859A850E94C000DC01CB019E8372
:103900008D838D819E819A83898389819A81019794
:10391000F1F79A838983CA5BDF4F0FB6F894DEBF55
:103920000FBECDBFCF91DF911F910F910895DF930F
:10393000CF93CDB7DEB72F970FB6F894DEBF0FBE8B
:10394000CDBF8F8781E061E041E00E940E1481E0ED
:1039500062E040E00E940E148F85982F92959F7030
:1039600080E0692F0E9409190E94692380E06F8519
:103970000E9409190E94692380E090E0A0E8BFE35B
:103980008B879C87AD87BE876B857C858D859E8563
:1039900020E030E04AEF54E40E947B0FDC01CB01D1
:1039A0008F839887A987BA876F81788589859A855B
:1039B00020E030E040E85FE30E94D51088232CF43B
:1039C00081E090E09E838D833FC06F8178858985FB
:1039D0009A8520E03FEF4FE757E40E9475101816D4
:1039E0004CF56B857C858D859E8520E030E040E23E
:1039F00051E40E947B0FDC01CB01BC01CD010E9490
:103A0000C000DC01CB019E838D830FC088EC90E069
:103A10009C838B838B819C810197F1F79C838B83A3
:103A20008D819E8101979E838D838D819E810097DC
:103A300069F714C06F81788589859A850E94C000D6
:103A4000DC01CB019E838D838D819E819A83898346
:103A500089819A810197F1F79A8389832F960FB60E
:103A6000F894DEBF0FBECDBFCF91DF910895DF93F5
:103A7000CF93CDB7DEB72F970FB6F894DEBF0FBE4A
:103A8000CDBF8F8781E061E040E00E940E1481E0AD
:103A900062E040E00E940E148F85982F92959F70EF
:103AA00080E0692F0E9409190E94692380E06F85D8
:103AB0000E9409190E94692380E090E0A0E8BFE31A
:103AC0008B879C87AD87BE876B857C858D859E8522
:103AD00020E030E04AEF54E40E947B0FDC01CB0190
:103AE0008F839887A987BA876F81788589859A851A
:103AF00020E030E040E85FE30E94D51088232CF4FA
:103B000081E090E09E838D833FC06F8178858985B9
:103B10009A8520E03FEF4FE757E40E947510181692
:103B20004CF56B857C858D859E8520E030E040E2FC
:103B300051E40E947B0FDC01CB01BC01CD010E944E
:103B4000C000DC01CB019E838D830FC088EC90E028
:103B50009C838B838B819C810197F1F79C838B8362
:103B60008D819E8101979E838D838D819E8100979B
:103B700069F714C06F81788589859A850E94C00095
:103B8000DC01CB019E838D838D819E819A83898305
:103B900089819A810197F1F79A8389832F960FB6CD
:103BA000F894DEBF0FBECDBFCF91DF910895DF93B4
:103BB000CF9300D00F92CDB7DEB79B838A83198253
:103BC0000EC08981282F30E08A819B81FC01E20FA1
:103BD000F31F80810E94971C89818F5F898389816F
:103BE000282F30E08A819B81FC01E20FF31F808146
:103BF000882339F70F900F900F90CF91DF910895A0
:103C0000AF92BF92CF92DF92EF92FF920F931F93EA
:103C1000DF93CF93CDB7DEB7C656D0400FB6F8943A
:103C2000DEBF0FBECDBF29873A874B875C876D8784
:103C30007E878F87988B81E089831A821B821C8202
:103C40001D821E821F82188689859A85892B9B85F5
:103C5000892B9C85892B9D85892B9E85892B9F850A
:103C6000892B9889892B882309F062C380E30E94FD
:103C7000971CEFC329813A814B815C816D817E81E4
:103C80008F819885A22EB32EC42ED52EE62EF72E28
:103C9000082F192F2A2D3B2D4C2D5D2D6E2D7F2D9C
:103CA000802F912F01E00E94410029A33AA34BA34A
:103CB0005CA36DA37EA38FA398A729A13AA14BA1D2
:103CC0005CA16DA17EA18FA198A502E00E94410098
:103CD00029A73AA74BA75CA76DA77EA78FA798AB8C
:103CE00089A199A5890F89AB81E089AF99A989A19B
:103CF000981708F019AE9AA18AA5980F9AAB91E08F
:103D00009AAF8AA99AA1891708F01AAE89AD9AA923
:103D1000890F8BAF81E08CAF9BAD8AA9981708F013
:103D20001CAE9AAD8CAD982B9AAF9BAD9AAB8BA184
:103D30009BA5890F8BAB81E08DAF9BA98BA19817B9
:103D400008F01DAE9AAD8BA9980F9EAF91E09FAF82
:103D50008EAD9BA9891708F01FAE8DAD9FAD892B45
:103D60008DAF8EAD8BAB9CA18CA5980F9CAB91E0D9
:103D700021969FAF21978CA99CA1891718F02196B5
:103D80001FAE21978DAD9CA9890F22968FAF2297E8
:103D900081E023968FAF239722969FAD22978CA91F
:103DA000981718F023961FAE239721969FAD219761
:103DB00023968FAD2397982B21969FAF219722961C
:103DC0009FAD22979CAB8DA19DA5890F8DAB81E006
:103DD00024968FAF24979DA98DA1981718F024964B
:103DE0001FAE249721969FAD21978DA9980F2596F8
:103DF0009FAF259791E026969FAF269725968FAD8A
:103E000025979DA9891718F026961FAE2697249608
:103E10008FAD249726969FAD2697892B24968FAF3A
:103E2000249725968FAD25978DAB9EA18EA5980FD3
:103E30009EAB91E027969FAF27978EA99EA18917E9
:103E400018F027961FAE279724968FAD24979EA92A
:103E5000890F28968FAF289781E029968FAF2997F1
:103E600028969FAD28978EA9981718F029961FAE0F
:103E7000299727969FAD279729968FAD2997982B3D
:103E800027969FAF279728969FAD28979EAB8FA127
:103E90009FA5890F8FAB81E02A968FAF2A979FA9A4
:103EA0008FA1981718F02A961FAE2A9727969FADD4
:103EB00027978FA9980F2B969FAF2B9791E02C9661
:103EC0009FAF2C972B968FAD2B979FA9891718F032
:103ED0002C961FAE2C972A968FAD2A972C969FADC5
:103EE0002C97892B2A968FAF2A972B968FAD2B97DD
:103EF0008FAB98A588A9980F98AF2A968FAD2A976F
:103F000098AD890F88AF89A9898F9AA99A8F8BA9B3
:103F10008B8F9CA99C8F8DA98D8F9EA99E8F8FA919
:103F20008F8F98AD98A3A984BA84CB84DC84ED8468
:103F3000FE840F8518892A2D3B2D4C2D5D2D6E2D6D
:103F40007F2D802F912F0F2EFAE0AF2EF02DBB2466
:103F5000CC24DD24EE24FF2400E010E00E94610761
:103F6000A22EB32EC42ED52EE62EF72E082F192FF3
:103F7000A98ABA8ACB8ADC8AED8AFE8A0F8B188FCF
:103F8000898D9989890F2D968FAF2D9781E0659640
:103F90008FAF65972D969FAD2D97898D981718F047
:103FA00065961FAE65979A8D8A89980F2E969FAF5A
:103FB0002E9791E066969FAF66972E968FAD2E97BF
:103FC0009A8D891718F066961FAE669765968FAD25
:103FD00065972E969FAD2E97890F67968FAF67973F
:103FE00081E068968FAF689767969FAD67972E962A
:103FF0008FAD2E97981718F068961FAE6897669643
:104000009FAD669768968FAD6897982B66969FAF21
:10401000669767969FAD67972E969FAF2E978B8D6D
:104020009B89890F2F968FAF2F9781E069968FAF6D
:1040300069972F969FAD2F978B8D981718F06996DB
:104040001FAE699766969FAD66972F968FAD2F9797
:10405000980F6A969FAF6A9791E06B969FAF6B97A8
:104060006A968FAD6A972F969FAD2F97891718F094
:104070006B961FAE6B9769968FAD69976B969FADE8
:104080006B97892B69968FAF69976A968FAD6A9700
:104090002F968FAF2F979C8D8C89980F60969FAF2E
:1040A000609791E06C969FAF6C9760968FAD60972C
:1040B0009C8D891718F06C961FAE6C9769968FAD22
:1040C000699760969FAD6097890F6D968FAF6D97DA
:1040D00081E06E968FAF6E976D969FAD6D976096EF
:1040E0008FAD6097981718F06E961FAE6E976C960E
:1040F0009FAD6C976E968FAD6E97982B6C969FAF19
:104100006C976D969FAD6D9760969FAF60978D8D04
:104110009D89890F61968FAF619781E06F968FAF10
:104120006F9761969FAD61978D8D981718F06F9678
:104130001FAE6F976C969FAD6C9761968FAD619730
:10414000980FA0969FAFA09791E0A1969FAFA197DF
:10415000A0968FADA09761969FAD6197891718F0D3
:10416000A1961FAEA1976F968FAD6F97A1969FAD49
:10417000A197892B6F968FAF6F97A0968FADA09761
:1041800061968FAF61979E8D8E89980F62969FAFD3
:10419000629791E0A2969FAFA29762968FAD6297C9
:1041A0009E8D891718F0A2961FAEA2976F968FADBD
:1041B0006F9762969FAD6297890FA3968FAFA39773
:1041C00081E0A4968FAFA497A3969FADA397629624
:1041D0008FAD6297981718F0A4961FAEA497A29679
:1041E0009FADA297A4968FADA497982BA2969FAF50
:1041F000A297A3969FADA39762969FAF62978F8D6C
:104200009F89890F63968FAF639781E0A5968FAFE3
:10421000A59763969FAD63978F8D981718F0A59615
:104220001FAEA597A2969FADA29763968FAD639799
:10423000980FA6969FAFA69791E0A7969FAFA797D6
:10424000A6968FADA69763969FAD6397891718F0D2
:10425000A7961FAEA797A5968FADA597A7969FADDA
:10426000A797892BA5968FAFA597A6968FADA697F2
:1042700063968FAF639798A1888D980F64969FAFD0
:104280006497A5968FADA59764969FAD6497890FA7
:1042900064968FAF64972D968FAD2D9789832E9658
:1042A0009FAD2E979A832F968FAD2F978B83609615
:1042B0009FAD60979C8361968FAD61978D83629669
:1042C0009FAD62979E8363968FAD63978F8364964D
:1042D0009FAD64979887A984BA84CB84DC84ED84ED
:1042E000FE840F8518892A2D3B2D4C2D5D2D6E2DBA
:1042F0007F2D802F912F0F2EFAE0AF2EF02DBB24B3
:10430000CC24DD24EE24FF2400E010E00E94EC0029
:10431000A22EB32EC42ED52EE62EF72E082F192F3F
:10432000A986BA86CB86DC86ED86FE860F87188B3B
:1043300089859A85892B9B85892B9C85892B9D85D1
:10434000892B9E85892B9F85892B9889892B88238A
:1043500009F090CC5EC0A980BA80CB80DC80ED8073
:10436000FE800F8118852A2D3B2D4C2D5D2D6E2D45
:104370007F2D802F912F0F2EFAE0AF2EF02DBB2432
:10438000CC24DD24EE24FF2400E010E00E9461072D
:10439000A22EB32EC42ED52EE62EF72E082F192FBF
:1043A0002A2D3B2D4C2D5D2D6E2D7F2D802F912F95
:1043B000822F805D0E94971CA980BA80CB80DC8010
:1043C000ED80FE800F8118852A2D3B2D4C2D5D2D13
:1043D0006E2D7F2D802F912F0F2EFAE0AF2EF02D16
:1043E000BB24CC24DD24EE24FF2400E010E00E9456
:1043F000EC00A22EB32EC42ED52EE62EF72E082FBB
:10440000192FA982BA82CB82DC82ED82FE820F83D1
:1044100018878981813009F09ECF8A81882309F02D
:104420009ACF8B81882309F096CF8C81882309F05D
:1044300092CF8D81882309F08ECF8E81882309F059
:104440008ACF8F81882309F086CF8885882309F059
:1044500082CFCA59DF4F0FB6F894DEBF0FBECDBF73
:10446000CF91DF911F910F91FF90EF90DF90CF9050
:10447000BF90AF900895DF93CF93CDB7DEB761972C
:104480000FB6F894DEBF0FBECDBF888B698B8889CD
:10449000833048F48889882331F08989813118F480
:1044A0008989882319F480E88F870DC08889813035
:1044B00021F4898981588F8706C08889823019F450
:1044C000898981548F878F850E94371D80E090E015
:1044D000A0E8BFE38B879C87AD87BE876B857C8513
:1044E0008D859E8520E030E04AEF54E40E947B0FEA
:1044F000DC01CB018F839887A987BA876F81788584
:1045000089859A8520E030E040E85FE30E94D5107D
:1045100088232CF481E090E09E838D833FC06F81DF
:10452000788589859A8520E03FEF4FE757E40E9420
:10453000751018164CF56B857C858D859E8520E061
:1045400030E040E251E40E947B0FDC01CB01BC0172
:10455000CD010E94C000DC01CB019E838D830FC082
:1045600088EC90E09C838B838B819C810197F1F791
:104570009C838B838D819E8101979E838D838D810A
:104580009E81009769F714C06F81788589859A8527
:104590000E94C000DC01CB019E838D838D819E81B2
:1045A0009A83898389819A810197F1F79A83898314
:1045B00061960FB6F894DEBF0FBECDBFCF91DF91ED
:1045C0000895DF93CF93CDB7DEB72E970FB6F8944B
:1045D000DEBF0FBECDBF81E00E94371D80E090E0BE
:1045E000A0E2B1E48B879C87AD87BE876B857C8515
:1045F0008D859E8520E030E04AEF54E40E947B0FD9
:10460000DC01CB018F839887A987BA876F81788572
:1046100089859A8520E030E040E85FE30E94D5106C
:1046200088232CF481E090E09E838D833FC06F81CE
:10463000788589859A8520E03FEF4FE757E40E940F
:10464000751018164CF56B857C858D859E8520E050
:1046500030E040E251E40E947B0FDC01CB01BC0161
:10466000CD010E94C000DC01CB019E838D830FC071
:1046700088EC90E09C838B838B819C810197F1F780
:104680009C838B838D819E8101979E838D838D81F9
:104690009E81009769F714C06F81788589859A8516
:1046A0000E94C000DC01CB019E838D838D819E81A1
:1046B0009A83898389819A810197F1F79A83898303
:1046C0002E960FB6F894DEBF0FBECDBFCF91DF910F
:1046D0000895DF93CF93CDB7DEB76C970FB6F894FC
:1046E000DEBF0FBECDBF81E063E041E00E940E144B
:1046F00080E090E0A0E8BFE3898F9A8FAB8FBC8FFA
:10470000698D7A8D8B8D9C8D20E030E04AEF54E4EA
:104710000E947B0FDC01CB018D8B9E8BAF8BB88F02
:104720006D897E898F89988D20E030E040E85FE3D5
:104730000E94D51088232CF481E090E09C8B8B8B19
:104740003FC06D897E898F89988D20E03FEF4FE7CC
:1047500057E40E94751018164CF5698D7A8D8B8D73
:104760009C8D20E030E040E251E40E947B0FDC01B0
:10477000CB01BC01CD010E94C000DC01CB019C8BB0
:104780008B8B0FC088EC90E09A8B898B89899A89F2
:104790000197F1F79A8B898B8B899C8901979C8B68
:1047A0008B8B8B899C89009769F714C06D897E89F2
:1047B0008F89988D0E94C000DC01CB019C8B8B8B74
:1047C0008B899C89988B8F878F8598890197F1F7C2
:1047D000988B8F8781E063E040E00E940E1480E0B8
:1047E00090E0A0E8BFE38B879C87AD87BE876B8591
:1047F0007C858D859E8520E030E04AEF54E40E9460
:104800007B0FDC01CB018F839887A987BA876F81E3
:10481000788589859A8520E030E040E85FE30E9452
:10482000D51088232CF481E090E09E838D833FC0D7
:104830006F81788589859A8520E03FEF4FE757E4BF
:104840000E94751018164CF56B857C858D859E85AC
:1048500020E030E040E251E40E947B0FDC01CB011C
:10486000BC01CD010E94C000DC01CB019E838D8381
:104870000FC088EC90E09C838B838B819C81019797
:10488000F1F79C838B838D819E8101979E838D831D
:104890008D819E81009769F714C06F817885898525
:1048A0009A850E94C000DC01CB019E838D838D819F
:1048B0009E819A83898389819A810197F1F79A83EE
:1048C00089836C960FB6F894DEBF0FBECDBFCF9133
:1048D000DF910895DF93CF93CDB7DEB70E94001A22
:1048E00081E40E94971CFFCF629FD001739FF0016B
:1048F000829FE00DF11D649FE00DF11D929FF00D70
:10490000839FF00D749FF00D659FF00D9927729FA6
:10491000B00DE11DF91F639FB00DE11DF91FBD0131
:10492000CF0111240895A1E21A2EAA1BBB1BFD0181
:104930000DC0AA1FBB1FEE1FFF1FA217B307E4077E
:10494000F50720F0A21BB30BE40BF50B661F771FD6
:10495000881F991F1A9469F76095709580959095B6
:104960009B01AC01BD01CF0108952F923F924F9260
:104970005F926F927F928F929F92AF92BF92CF92EF
:10498000DF92EF92FF920F931F93CF93DF93CDB7F8
:10499000DEB7CA1BDB0B0FB6F894DEBF0FBECDBF70
:1049A00009942A88398848885F846E847D848C8441
:1049B0009B84AA84B984C884DF80EE80FD800C814A
:1049C0001B81AA81B981CE0FD11D0FB6F894DEBF2D
:0C49D0000FBECDBFED010895F894FFCF9D
:1049DC0000000000000000000001020203030303BA
:1049EC000404040404040404050505050505050573
:1049FC000505050505050505060606060606060653
:104A0C00060606060606060606060606060606063A
:104A1C000606060606060606070707070707070722
:104A2C00070707070707070707070707070707070A
:104A3C0007070707070707070707070707070707FA
:104A4C0007070707070707070707070707070707EA
:104A5C0007070707070707070808080808080808D2
:104A6C0008080808080808080808080808080808BA
:104A7C0008080808080808080808080808080808AA
:104A8C00080808080808080808080808080808089A
:104A9C00080808080808080808080808080808088A
:104AAC00080808080808080808080808080808087A
:104ABC00080808080808080808080808080808086A
:104ACC00080808080808080808080808080808085A
:084ADC00080808080808080892
:00000001FF
